:100000000C94DF0A0C94170B0C94170B0C94C82F4C
:100010000C94170B0C94170B0C94170B0C94170BD8
:100020000C94170B0C94170B0C94032E0C94DB2ED2
:100030000C94B91C0C94170B0C94170B0C94170B05
:100040000C94170B0C94170B0C94170B0C94170BA8
:100050000C94170B0C94DF2D0C94170B0C94170BAE
:100060000C94170B0C94170B0C94170B0C94170B88
:100070000C94170B0C94170B0C94170B0C94170B78
:100080000C94170B0C94170B0C94170B0C94170B68
:100090000C94170B0C94170B0C94170B0C94170B58
:1000A0000C94170B0C94170B0C94170B050109807B
:1000B000A101850319012AB700150126B700950192
:1000C00075108100C0050C0901A101850419012AE0
:1000D000A002150126A002950175108100C005013E
:1000E0000906A1018506050719E029E71500250184
:1000F0009508750181020507190029EF15002501F2
:1001000095F075018102050819012905950575010C
:100110009102950175039101C005010902A1010930
:1001200001A1000509190129081500250195087587
:100130000181020501093009311581257F9502757C
:1001400008810609381581257F9501750881060506
:100150000C0A38021581257F950175088106C0C0FB
:100160000660FF0961A1010962150026FF009520C4
:10017000750881020963150026FF00952075089116
:1001800002C005010906A101050719E029E71500CC
:100190002501950875018102950175088101050702
:1001A000190029FF150026FF009506750881000536
:1001B000081901290515002501950575019102957C
:1001C0000175039101C00B003600370000001B00D1
:1001D00006000700000009027400040100A0FA09EB
:1001E0000400000103010100092111010001224462
:1001F0000007058103080001090401000203000053
:1002000000092111010001222200070583032000BB
:100210000107050403200001090402000103010293
:100220000009211101000122470007058203100087
:10023000010904030001030000000921110100016C
:10024000226D000705850320000112010002000055
:100250000008F8A83318000201020001300343002F
:100260006800610072007900620064006900730038
:1002700020002800340078003600290020004500C6
:100280006C006900740065002D0043000000240329
:10029000420061007300740061007200640020007D
:1002A0004B006500790062006F006100720064001D
:1002B000730000000403090429001E001F00200031
:1002C000210022002B0014001A0009001300050071
:1002D000E10004281524162117220A00E0001D431E
:1002E0001B00060007001900000021522A00E3004D
:1002F0002C00E2002D00270026002500240023000A
:10030000310033001C0018000F000D0034001238BB
:100310000C24083111321000E20038433700360057
:100320000B000E00000022520000280000004C00CC
:1003300035021E021F022002210222022178000043
:1003400000000000000000002078E300E200E00070
:10035000E100000022780000000000000000000022
:100360000000010000000000000000002D02270234
:1003700026022502240223020000300061006000F2
:100380005F002F00670056005E005D005C005700B4
:10039000630054005B005A00590055000000000043
:1003A000000001000000620045003A003B003C00F4
:1003B0003D003E00AB000000000000000000000017
:1003C000AE005000520051004F000000AC004A0047
:1003D0004B004E004D000000000000000100010035
:1003E00001000100440043004200410040003F0082
:1003F000A90000000000000000000000A800E700C5
:10040000E600E400E5000000AA0000000000000093
:1004100000000000000001000000000000000000DB
:1004200000000000000000000000000000000000CC
:1004300000000000007E027E0000E300E200E00019
:10044000E100000000000100067E047E037C007CC9
:100450000000D300D200D200D10000000000000054
:10046000000000000000000000000000000000008C
:10047000007E027E0000E700E600E400E5000000E8
:1004800000000100067E047E037C007C0000D30097
:100490000000D1000000D20001048E966E773EFE6F
:1004A0007E5F1DB8F2664EFF5D19B0C20469542A22
:1004B000D62EBFDD19B0C3E529B1E023A5A9B1C18E
:1004C0000082674C1A978D795120C7068E7C7C7A02
:1004D000764FFD5930E2460E9EBEDF1D9991A0A5D4
:1004E000A1A9D022C6EF5C1B958990A2A7CCFB5591
:1004F00028B3E44AF76C3BF46A562EDE1F9DB8D34E
:10050000058892A6CE1EBEDF1D99B0E246EF5C07BD
:10051000115D980B9D9497EE4E45336B44C7295659
:100520002730C6A7D5F256DFB43862CBA0B6E30FAA
:1005300084062405656F7689B577412782666582D2
:10054000CCD5E620D52717C5F803237C5F64A51D0D
:10055000C1D636CB4CD4DB66D78BB1997E6F4C3687
:100560004006D6EBD7A2E4F495515A5496D553449D
:10057000D78CE0B94068D218E9DD9A239248EE7F23
:1005800043AFEA7738848C0A72AF69F8DDF12483CF
:10059000A3F84ABFF59413DBBBD8B4B3A0FB455016
:1005A000603059123171A2D313E7FAE7CE0F631509
:1005B0000B6B94BB378326059DFB4692FC0A15D135
:1005C0000D7392D68C1B8CB8558ACEBDFE8EFCED79
:1005D0000912839182513123FBB40C76AD7CD9B4DE
:1005E0004BB26714099C7F0C18BA3BD68E142AE4D0
:1005F0001B529F2B7DE1FB6A3302FAAC5AF23E8814
:100600007EAED1F378E805D1E3DC21F6E19ABD179F
:100610000ED9469B8803EAF666BE0E1B50499640EB
:1006200097F1F1E480A66EE87734BF294044C2FF19
:100630004E98D39CA3322B76510409E7A9D1A63258
:10064000B12353E247ABD6F5695C3E5FFAAE452075
:10065000E5D244FF39326DFD27575CFDF0DEC1B5B0
:1006600099E5F51C770175C56D5892F2B247000106
:1006700026967A30FFB7F0EF77C18A5DDCC0D129CA
:10068000301E77387A94F1B87A7EEFA4D1AC314A33
:10069000F25D643DB2E2F00899FC70EE24A77EEEB4
:1006A0001E20697D44BF8742DF883B0CDA42C904C3
:1006B000F94550FC838F116A72BC9995F0AC3DA747
:1006C0003BCD1CE2887937115F3989950A16847A07
:1006D000F68AA428E4ED83803BB123A50310F466D9
:1006E000EABB0C0FC5EC6C69C5D324ABD42AB7990F
:1006F000887608A0A8957CD8386DCD5902514BF169
:10070000B52B50E3B6BDD072CF9EFD6EBB44C8245E
:100710008A77188A1306EF977DFA81F031E6FA7727
:10072000ED3106315B548A9F3068DBE240F84E734E
:10073000FAAB748B105813DCD2E678D1322E8A9F34
:100740002C58064827C5A95E814789462191037028
:10075000A43E889CDA330ACEBC8B8ECF9FD37180A7
:1007600043CF6BA95183763082C56A853911501AFF
:1007700082DC1E1CD57DA9719933471997B35AB1F4
:10078000DFEDA4F2E62684A2289A9EDFA66AF4D6BC
:10079000FC2E5B9D1A2A2768FBC183214B90E03613
:1007A000DD5B314255A013F7D08953719957092960
:1007B000C5F321F8372F40F3D4AF16083602FC7783
:1007C000C58B049056B9C9679A99E800D386FF97FC
:1007D0002D08E9B7B391BCDF45C6ED0F8C4C1EE682
:1007E0005B6E3830E4AAE395DEB9E49AF5B2559A27
:1007F000879BF66AB2F2779A31F47A31D11D04C040
:100800007C32A29E9AF562F8278DBF51FFD3DF6438
:10081000373F2A6F763A7D77069E777F5EEB3251BF
:10082000F916669A09F3B008A470964630FFDA4FBD
:10083000E91BED8DF8741F3192B3731736DB9130DD
:10084000D688556B3477877AE7EE06C61C8C190C70
:100850004846235E9C075CBFB47ED64F749CE2C5BD
:10086000508BC58B159060625729D01343A18088A7
:10087000910044C74D1986CC2F2A755AFCEB972A54
:1008800070E378D891B04F9907A395EA2421D5DE7B
:10089000512093270A3073A8FF8A97E9A76A8E0D23
:1008A000E8F0DFECEAB46C1D392A622D3D5A8B6505
:1008B000F890052E7E912C78EF8E7AC12FAC78EED1
:1008C000AF2845064C26AF3BA2DBA39306B53CA55B
:1008D000D8EE8FAF25CC3F856848A962CC978F7F33
:1008E0002AEAE0150AAD6207BD45F841D836CB4C7F
:1008F000DB6EE63AE7DA15E9291E1210A0142C0E79
:100900003DF4BF394192750B257BA3CE399C15640C
:10091000C8FA3DEF7327FE262ECEDA6EFD718EDD0E
:10092000FE76EEDC125C02C53A4E4E4FBFCA401551
:10093000C76E8D41F110E04F7E977F1CAE478E6BE6
:10094000B12531B073C71B9779F980D36622300780
:10095000741EE4D08021D6EE6B6C4FBFF5B7D90979
:10096000872FA914BE27D9725001D41373A6A7519B
:10097000027525E1B345347DA88EEBF31649CB4FC4
:100980008CA1B9368539755D0800AEEBF6EAD71350
:100990003A215A5F3084522695C914F257556BB1EB
:1009A00010C2E1BD3B51C0B7554C711226C70DF9BD
:1009B00051A43802057FB8F1724BBF718914F377E7
:1009C00038D97124F30011A1D8D46927083735C963
:1009D000119D901C0EE71CFF2D1EE892E11810954A
:1009E0007CE080F4964321F975216438DD9F1E95E3
:1009F00016DA561D4F9A53B2E2E418CB6B1A65EB28
:100A000056C63BE5FED8263F3A84597266A2F37576
:100A1000FFFB60B322AD3F2D6BF9EBEA057CD88F6D
:100A20006D2C989E2B93F15E46F08749297368D709
:100A30007FF9F0E57DDB1D7519F3C4589B1788A875
:100A400092E0BEBD8B1D8D9F5676ADAF29E2D9D504
:100A500052F6B55635573AC8E156431994D3049B1C
:100A60006D35D80B5F4D198EECFA64910A72202B0C
:100A7000BC1A4AFE8BFDBBED1B23EAAD7282A12995
:100A80009971BDF095C103DD7BC2B23C2854D36897
:100A9000A472C86696E0D1D87FF8D1262BF7ADBAFC
:100AA00055CA15B932C3E588978E5CFB92258BBF7A
:100AB000A245557AA76F8B575BCF0ECB1DFB2082CB
:100AC00077A88CCC16CE1DFADECC0B62FECCE1B73B
:100AD000F0C381647340A0C24D8911753355338DC5
:100AE000E84AFDEA6E300BD7312CDE47E3BFF855FC
:100AF00042E27F59E517EF99346991B1238E20873F
:100B00002DA8FED58AF3843AF037E4090054EE6745
:100B10004993E48170E3904DEFFE41B7997BC18327
:100B2000BA62126F7DDE6BAFDA16F95551EEA60C84
:100B30002B02A3FD8DFB3017E46FDF3671C4CA872B
:100B40002548B047ECEAB4BFA54D9B9F0293C4E390
:100B5000E4E8422D6881150AEB845BD6A874FB7D1E
:100B60001DCB2CDA462A7662CEBC5C9E8BE7CFBECC
:100B700078F57CEBB33A9CAA6FCC72D159F2112371
:100B8000D63F48D1B7CEB0BFCBEA80DE57D45E9710
:100B90002F75D1508E802C6679BF724BBD8A816CC7
:100BA000D3E101DCD21526C536DA2C1AC02794ED24
:100BB000B79B850B5E8097C5EC4FEC885D50073581
:100BC00047DC0B3B3DDD60AFA85D813824255D5CD3
:100BD00015D1DEB3ABEC0569EF83ED5754B864640F
:100BE00011163269DA9F2D7F36BB445A34E87FBF35
:100BF00003EB007F59682279CF736C2C29A7A15F82
:100C000038A11DF02053E01A6314587110AA080C83
:100C10003E161A6022827FBAA443A0D0AC1BD56BCB
:100C200064B51493319E5350D05766EE5A4FFB0370
:100C30002A695876F183F74EBA8C4206605D6DCE14
:100C40006088AEA4C3F103A54B98A1FF67E1ACA2F5
:100C5000B862D76FA031B4D277AF211006C69AFF21
:100C60001D09170E5FF1AA54344B458A8763A6DC31
:100C7000F9243067C6B2D6613369EE50615728E770
:100C80007EEEEC3A5A734EA88DE418EAEC4164C843
:100C9000E2E866B62DB6FB6A6C16B3DD4643B9735F
:100CA000006A71ED4E9D251AC33C4A951599358110
:100CB0001402D6989BECD8233B8429AF0C9983A6C9
:100CC0009A344FFAE8D03C4BD0FBB668B89E8FCD33
:100CD000F7602D7A22E57DAB651B95A7A87FB677D7
:100CE000477B5F8B1272D0D491EFDE19503CA78BFB
:100CF000C4A9B323CB76E681F0C1048FA3B8545BBB
:100D000097AC19FF3F55272FE01D429B57FC4B4ED8
:100D10000FCE98A9435703BDE7C894DF6E367332F0
:100D2000B4EF2E857A6EFC6C188275359007F3E46B
:100D30009F3EDC68F3B5F31980920699A2E86FFF35
:100D40002E7FAE42A45FFBD40E812BC304FF2BB3D6
:100D5000744E365B9C1500C6472BE88B3DF19C0317
:100D60009A587F9B9CBF854979352E567B41143913
:100D7000478326AA078998111B86E7737AD87D785E
:100D80006153E979F5368D449284F91350583BA4A8
:100D90006A3665498E3C0EF16FD284C47E8E3F392F
:100DA000AE7C84F163378E3CCC3E448145F14BB937
:100DB000ED6B365DBB20601A0FA3AA55773AA9AE3A
:100DC000374DBAB8866BBC0850F6CCA4BD1D407236
:100DD000A586FAE210AE3D584B97F34374A99EEBFB
:100DE00021B701A4869397EE2F4F3B86A1416F4117
:100DF0002690785C7F30384B3FAAECED5C6F0EADEF
:100E00004387FD9335E601EF412690999EFB195BE0
:100E1000ADD2918AE046AF65FA4F84C1A12DCF458E
:100E20008BD38550557CF96788D44EE9D76B6154D4
:100E3000A1A4A6A2C2BF309C409F5FD7692B248289
:100E40005ED9D6A712541AF7559F7650A99584E615
:100E50006B6DB59654D6CDB3A19B46A7944DC49463
:100E6000B498E3E1E234D533160754CDB77753DBBA
:100E70004F4D469DE9D49C8A36B6B838266C0EFF95
:100E80009C1B438B80CCB93DDAC7F18AF26DB8D791
:100E9000742F7E1EB7D34AB4ACFC79486CBC96B6AE
:100EA0009446572DB0A3FC1EB95260852D41D04306
:100EB000011E1CD57DFCF3960DC7CB2A299A93DD24
:100EC000882D375DAAFB4968A09C50867F685657DD
:100ED000F9791839D4E001843361CAA5D2D6E4C9BE
:100EE0008A4A23444EBCF0DC24A1A0C4E2073C1093
:100EF000C4B5254B6563F480E7CF61B1718221876A
:100F00002CF59100320CECA9B59A7485E3368F76F6
:100F10004F9C6DCEBCAD0A4BED7604CBC3B9339E6E
:100F2000019396697DC5A245799B045C8409ED888F
:100F300043C7AB931426A140B5CE4EBF2A42853E8F
:100F40002C3B54E8121F0E9759B22789FAF2DF8E14
:100F50006859DC06BCB6850D0622ECB1CBE504E68B
:100F60003DB3B04173083F3C588663EB50EE1D2CF7
:100F70003774A9D318A3476E9354AD0A5DB82A55A8
:100F80005D78F6EEBE8E3C7669B940C234EC2AB983
:100F9000ED7E20E48D0038C7E68F44A886CEEB2A8C
:100FA000E990F14CDF32FB731B6D921E95FEB4DBB2
:100FB00065DF4D23548948BF4A2E70D6D762B433BB
:100FC00029B13A334C236DA676A5216348E6905D9E
:100FD000ED90950B7A84BEB80D5E630C62264C14BE
:100FE0005AB3AC23A474A76F333005600142A02824
:100FF000B7EE1938F164808243E141271F1F9054F6
:101000007AD5232ED13DCB28BA587FDC7C9124E9B8
:101010002851836EC5562142EDA05622A140806B17
:10102000A8F794CA136B0C39D9FDE9F36FA69EFC9F
:10103000708AB3BC593C1E1D6CF97CAFF988719560
:10104000EB5700BD9F8C4FE12483C522EAFDD30CF2
:10105000E217187C6A4CDE77B4539B4C81CD236039
:10106000AA0E25739C02793230DF74DF7519F4A55E
:10107000145CF77AA8A591847C6003063BCD50B63A
:10108000279CFEB1DDCCD3B05924B2CAE21C812228
:101090009D078F8EB9BE4EFAFC3965BABF9D1237D7
:1010A0005E977EF389F55DF5E3098C62B5209D0CB2
:1010B000538A681BD28F75175DD4E5DA75621914EF
:1010C0006A262DEBF8AF37F06CA455B1BCE233C003
:1010D0009ACAB011494F689B3B6B3CCC13F6C7854D
:1010E000616842AEBBDDCD4516291DEADBC803941D
:1010F0003CEE4F8211C3EC28BD970599DED7BB5E4D
:10110000221FD4EB64D992D985B76A056AE42441D9
:10111000F1CDF0D83FF89E0ECD0B7A706B5A750A60
:101120006A3388EC17750870102F24CFC4E9420089
:101130006194CA1F3A7606FAD24881F07760034577
:10114000D961F4A46F3DD930C3046B542AB7EC3B8A
:10115000F44BF5685226CEFF5D1991A0A3A5A9B165
:10116000E023C40A774DF95120A3A5A9B1C100829B
:10117000868E7F5D1991A0A3C4EB540B756852074E
:101180008C9A978D79706246EF5C1B95897141E16D
:1011900021A1A1A1C002674C1AB6CFFD785324ABA0
:1011A000B5C9F16023A5C812876D58138588928749
:1011B0006D5832C70C9A97ACDA36EE5E3EDF1DB83A
:1011C000F2662FBDF87247ED5813858892878C7BA5
:1011D000550990A2C6EF3DF85324ABD42AB7EC5A78
:1011E00036EE5E3EDF3CFA764FFD5930E246EF3D8B
:1011F000F853056931C10082868E7F5D19B0E22700
:10120000CCFB744B148B948B756833C50892878C18
:101210009AB6CF1CBAD70D98B2E62FDC1B95897110
:101220006023C40A968F9CBAF66E3FFC5B15A8D269
:1012300026AFBDF872662FDC1BB4CB148B94AAB713
:10124000CDF951018082866F3DD930E227CCFB7405
:101250004B14AAB7CDF97043046B35C9F16023A5CF
:10126000C8F3450892876D5832E62FBDF872664E76
:101270001EBEFE7E7E7E5F1D9991A0A3C40A774D9F
:101280001893A4ABD40B754910A2C6EF3DF85324B4
:10129000ABB5E833E44A16AEDE1FBCDB15A8B3C518
:1012A000087345E931C1E121A1A1A1C002866F5CAB
:1012B0003AD70D9893A4CA16AEDE1F9D99B0E246A8
:1012C000EF3DF872470C9AB6CFFD5911A0A3A5C8FF
:1012D000F3450892876D39F043048A96AEDE3EDF0F
:1012E0001D9991A0C2066F3DF872470C9A978D9890
:1012F0009385887345E931E023A5A9D003848A96B4
:10130000AEDE1FBCDB15A8D226CEFF5D1991818011
:1013100082672DD813A4ABD40B94AAB7CDF9512072
:10132000A3A5C8F345E95022C6EF5C3AD70D9893C0
:10133000858873644AF74DF95120A3C40A96AEDE3E
:101340003EFE7E7E7E5F3CFA764FFD7872662FBD54
:10135000D930C3E54812878C7B5528D2078C9A97E1
:10136000ACDA178D795120A3C4EB540B948B94AA5B
:10137000D62EBFFC5B15A8D226AFDC1BB4EA37EC37
:101380003BF46A37CD1893856931C1E140E325C844
:1013900012878C9AB6CFFD5911A0C2068E7F5D3898
:1013A000F2470C7B746A37EC5A36EE3FFC7A764F84
:1013B0001C9B95897141006344EB542AD60F9CBA5B
:1013C000D70D9893856931C10082868E9EBEDF3C21
:1013D000FA572CDA36EE3FFC5B15897141008286A4
:1013E0008E7F5D38F247ED5813A4CAF74DF95101CD
:1013F000806344EB542AD62EBFDD1991A0A3A5A982
:10140000B1E042068E7F5D1991A0A3C40A968F7D3C
:101410007872470C7B746A562EDE1FBCFA570D7922
:1014200051016121A1C0E325A9B1C1E14002674C8E
:101430001A978D9893A4ABD42AD60F9C9BB4CB1447
:10144000AAB7CDF95120A3C4EB35C9F16042068E8D
:101450007F7C7A766E3FFC7A766E5E3EFE7E5F3CE7
:10146000DB15897141E121C0E344EB542AB7CDF982
:10147000706227ADD832C70C7B744B14AAB7EC3B13
:10148000D528D2076D39D120C2E74C1A978D98B272
:10149000C70C5928F39B000000000000000000006A
:1014A000000000000000000000000000000000003C
:1014B000000000000000000000007E0F00D4FFFFCD
:1014C000FFC70000007800000000000000002A2B89
:1014D00028000000000000000000000000000000E4
:1014E0000029000000002C1E34202122243426274D
:1014F000252E362D3738271E1F202122232425266E
:101500003333362E37381F0405060708090A0B0C3B
:101510000D0E0F101112131415161718191A1B1C83
:101520001D2F3130232D350405060708090A0B0C41
:101530000D0E0F101112131415161718191A1B1C63
:101540001D2F3130354C000501050205030504054A
:101550000505000601060206030604060506000747
:10156000010702070307040705070008010802082E
:10157000030804080508020904090509010900090E
:10158000030900000100020003000400050000013F
:10159000010102010301040105010002010202022E
:1015A0000302040205020003010302030303040310
:1015B00005030004030402040504040402041124C6
:1015C0001FBECFEFDAE0DEBFCDBF04B603FE18C00A
:1015D00080918D0390918E03A0918F03B091900321
:1015E0008730904BA740B04B59F410928D03109266
:1015F0008E0310928F0310929003E0E0F8E30995B8
:1016000011E0A0E0B1E0E8E2F6E602C005900D923C
:10161000A43AB107D9F723E0A4EAB1E001C01D92D2
:10162000AD38B207E1F70E94102A0C94B0320C9446
:101630000000809387030895292F9A3098F586300B
:1016400088F590E036E0239F800D911D1124282F0E
:10165000277041E001C0440F2A95EAF723E09695F0
:1016600087952A95E1F7FC01EE0FFF1FE80FF91FA0
:10167000EC51FD4F20E030E070E05191DF01119717
:10168000CB01022E02C0969587950A94E2F78170ED
:1016900081958527842385278C932F5F3F4F2330A7
:1016A000310559F70895292F9A3078F5863068F575
:1016B00090E036E0239F800D911D1124682F677004
:1016C00023E0969587952A95E1F7FC01EE0FFF1F21
:1016D000E80FF91FEC51FD4F40E050E080E0219110
:1016E00030E0062E02C0369527950A94E2F7217065
:1016F0003327042E01C0220F0A94EAF7822B4F5F92
:101700005F4F4330510559F7089580E00895809167
:10171000920290919102981301C008958F5F877093
:10172000FACF803E9105D1F1C8F48133910509F4D7
:101730007FC048F48932910509F46FC08A3291055F
:1017400009F47DC0089589339105E1F0823891054F
:10175000C9F08533910509F45BC00895843E910575
:10176000D1F148F4823E910531F1833E910541F17A
:1017700081EE90E00895863E9105C1F1873E910586
:10178000E1F10895209102032370211165C0209199
:10179000030323FF14C089E290E00895209102031F
:1017A00020FD43C03091030330FF09C024FF4EC029
:1017B00080E090E008952091020322FDF7CF089584
:1017C0002091020322FD45C03091030330FD44C047
:1017D00024FFF5CFEDCF2091030321FFF0CF8091BF
:1017E000020384FDE5CF87EE90E008952091020387
:1017F00023FFE5CF24FDDCCFF6CF2091020323FDAC
:101800002EC03091030331FFE3CF84EE90E00895C2
:101810002091020325FFD3CFBECF2091020325FDE7
:1018200021C02091030323FFCACF89E390E00895EC
:101830002091020326FFC3CF8AE290E00895209111
:10184000020326FFBCCF81E390E0089583EE90E091
:10185000089582EE90E0089580EE90E0089586EE7F
:1018600090E0089585E390E0AACF9091020392FF63
:1018700010C041E0282F2471243009F040E031E00D
:10188000282F2871283009F030E0431711F02CE0A0
:10189000822793FF10C041E0282F2471243109F0E2
:1018A00040E031E0282F2871283109F030E043175B
:1018B00011F02CE082273091030330FF10C051E07B
:1018C000282F2171213009F050E041E0282F2871A4
:1018D000283009F040E0541711F029E0822731FF49
:1018E00010C041E0282F2171213109F040E031E0A2
:1018F000282F2871283109F030E0431711F029E032
:10190000822794FD877E0895809189030E94350C7B
:10191000982F927281E0911101C080E008951F9389
:10192000CF93DF930E94910BEC01811522E5920782
:1019300008F053C0811540E5940708F0E5C0803EEB
:101940009105F8F48D3C910508F0B9C0883A9105ED
:1019500080F4853A910508F0A4C08130910521F00A
:101960000497813A910550F4CE01DF91CF911F91F8
:101970000895885A91094B9708F496C0C0E0D0E0CA
:10198000F3CF811550E49507F8F4C11580E2D8072C
:1019900008F0D3C0C83ED10538F3CE019A95811521
:1019A0009F4160F78D2F0E94350C182FCE0199278B
:1019B0000E94910B212F30E0322F2227E901CC2702
:1019C000DF71C82BD92BD0CF99270E94910BCC2740
:1019D000DF70C82BD92BD06AC7CF803842E5940777
:1019E000C8F5803652E5950708F072C0C03482E52C
:1019F000D807B0F08C2F86958695877020E2829F5D
:101A0000C0011124C37021E030E0A90102C0440FDD
:101A1000551FCA95E2F7EA01C82BD92BDC68A4CF81
:101A2000C03252E5D50708F04CC08C2F86958695BC
:101A300020E2829FC0011124C37021E030E0A9019F
:101A400002C0440F551FCA95E2F7EA01C82BD92BF3
:101A5000DD688ACF803E52E59507B0F4C03C82E550
:101A6000D80708F04AC0CE01805A9245809708F006
:101A700085CF8C2F8F710E94350CC82FD0E0DC2FC2
:101A8000CC27CC27DF7170CF96558F3F910511F091
:101A900008F074CFCE0199270E94910BEC01D0661B
:101AA00063CFA497D06460CFC85AD0E0CC0FDD1FBD
:101AB000C359DE4F0990D881C02DD46455CFD0656D
:101AC00053CFCF71D0E0DC2FCC27C16FD06A4CCF81
:101AD00086958695877020E2829FC0011124C3708D
:101AE00021E030E0A90102C0440F551FCA95E2F77A
:101AF000EA01C82BD92BDA6837CFDC2FCC27CC27CB
:101B0000DF71C06FD06A30CF8F710E94350C65E0F5
:101B1000D695C7956A95E1F7CF70D0E0DC2FCC273A
:101B2000282F30E084FF05C054E0220F331F5A9560
:101B3000E1F7C22BD32BD06917CF8D2F8F710E9465
:101B4000350C182FCE0199270E94910B212F30E0E0
:101B5000322F222722273F71282B392BE901D0620F
:101B600003CF80E00895F894E82FE295EF70F0E05D
:101B700041A18F7021E030E0B90102C0660F771FEC
:101B80008A95E2F7CB01962F9095942391A392A189
:101B9000892B82A37894089520916002211103C0BB
:101BA0000E94481B0895809338029093390208954B
:101BB000109219031092180380914201811104C000
:101BC000109241011092430180914901811104C09A
:101BD0001092480110924A010895AC0130911B0304
:101BE00060911A03232F621301C00895822F90E0A1
:101BF000FC01EE0FFF1FE05FFC4F0190F081E02D34
:101C0000E417F50791F467E0649FF001659FF00D1C
:101C10001124E35CFE4F41E044832313E6CF019699
:101C20008370992780931B0308950196282F2370B2
:101C3000DACF80915F02882359F0E0918702F0911A
:101C40008802309729F00190F081E02D09950895E0
:101C500080E00895A3E0B0E0E0E3FEE00C94FA3108
:101C60009C018091FA019091FB0182179307A1F0EA
:101C70003093FB012093FA01E0918702F0918802F2
:101C8000309751F083E089833B832A830084F18578
:101C9000E02DCE01019609952396E2E00C941632D0
:101CA000A3E0B0E0E6E5FEE00C94FA319C018091FF
:101CB000F8019091F90182179307A1F03093F9018F
:101CC0002093F801E0918702F0918802309751F05B
:101CD00084E089833B832A830084F185E02DCE0153
:101CE000019609952396E2E00C94163290913B01FF
:101CF0009923C1F09091020397FF14C0E82FE69555
:101D0000E695E695803FF8F4F0E0E255FE4F8770E7
:101D100021E030E001C0220F8A95EAF78281822B10
:101D200082830895A8EAB1E0EFEF90E02D91821749
:101D300051F0EF3F19F4211101C0E92F9F5F963058
:101D4000A9F7EF3F09F408950E2E000CFF0BEA559A
:101D5000FE4FE6CF90913B019923E1F09091020371
:101D600097FF18C0E82FE695E695E695803FF0F4DA
:101D7000F0E0E255FE4F877021E030E0A90102C09B
:101D8000440F551F8A95E2F7CA01809592818923F5
:101D900082830895E8EAF1E09191891303C0DF019D
:101DA00011971C9251E0EE3AF507B1F70895A4E0BF
:101DB000B0E0EDEDFEE00C94FA318FB7F89420918D
:101DC000F4013091F5014091F6015091F70129831A
:101DD0003A834B835C838FBF69817A818B819C813D
:101DE0002496E2E00C941632A4E0B0E0EAEFFEE0C4
:101DF0000C94FA3180915F02882371F00E94D70E13
:101E000069837A838B839C8369817A818B819C81AE
:101E10002496E2E00C9416320E94D70E69837A83EE
:101E20008B839C838091610290916202A0916302F6
:101E3000B091640229813A814B815C81280F391F5E
:101E40004A1F5B1F29833A834B835C83DDCF9C0150
:101E50004FB7F8948091F4019091F501A091F601AB
:101E6000B091F7014FBF821B930B0895A4E0B0E03F
:101E7000ECE3FFE00C94F831462F572FBC012FB74D
:101E8000F8948091F4019091F501A091F601B09140
:101E9000F7012FBF8C019D01041B150B260B370B7F
:101EA000C901B8012496E4E00C9414328091F30146
:101EB0000895FC019B018091E9019091EA01861748
:101EC000970740F0672B29F48091E8008E77809384
:101ED000E800C90140E0009741F4411106C080913B
:101EE000E80082FF2FC080E0089520913202222373
:101EF000A9F12530A9F12091E80023FD2DC0209102
:101F0000E80022FDECCF2091E80020FFE4CF3091E3
:101F1000F3002091F200009719F02830310558F0B5
:101F200041E02830310509F040E02091E8002E77AB
:101F30002093E800D0CF41914093F10001972F5FAB
:101F40003F4FE9CF80913202882341F0853041F044
:101F50008091E80083FFC3CF81E0089582E0089577
:101F600083E008958091E30187FF13C08091E8002A
:101F700082FF06C08091E8008B778093E80004C060
:101F8000809132028111F2CF08958091320288232C
:101F9000D9F38091E80080FFF8CF8091E8008E7738
:101FA000ECCF2091E4003091E50095E6A901809105
:101FB000EC008170882331F08091E80080FF06C03A
:101FC00080E008952091E80022FD1BC0809132023C
:101FD000882391F0853091F08091EB0085FD10C051
:101FE0002091E4003091E5004217530701F391502E
:101FF0009111DCCF84E0089582E0089583E0089594
:1020000081E00895E8EDF0E080818E7F808310927A
:10201000E2001092DA001092E100A0EEB0E08C91A4
:1020200081608C9380818F77808319BCA7EDB0E0AD
:102030008C918E7F8C9380818F7E80831092E201C1
:102040000895FC01AC014B5F5F4F8FEF91E321914D
:10205000822728E030E087FF0BC0880F89272150B6
:10206000310921153105B9F7E417F50781F708950E
:10207000880FF5CF80918A0386FF05C084E690E043
:102080000E94CC0D089587FF09C08295837024E6D5
:10209000829FC001112488539F4FF2CF8F7028EC8C
:1020A000829FC001112480579E4FEACFCF93C82F43
:1020B00083FB882780F9C11101C080E090918A03D9
:1020C00080FB97F990938A030E943A10C09388038B
:1020D000CF91089521E030E001C0220F8A95EAF700
:1020E00080918803822B0E945610089521E030E0F1
:1020F000A90102C0440F551F8A95E2F7CA018095D5
:102100009091880389230E94561008959091880326
:1021100021E030E0F90101C0EE0F8A95EAF7D9011C
:1021200002C0AA0FBB1F6A95E2F7EA2B01C0220F7B
:102130004A95EAF7892F8E23E81305C0892F822B51
:102140000E94561008952095822F8923F9CF982F49
:10215000E42FE2709093E900891308C0762F242FB2
:1021600050E0E11111C091E0980FF4CF7091EC00B4
:102170002091ED005091F00021FD06C09F5F973047
:1021800049F78093E90008953091EB003E7F30934A
:10219000EB003091ED003D7F3093ED003091EB008E
:1021A00031603093EB007093EC002093ED0050937E
:1021B000F0002091EE0027FDE1CF0895A0E0B0E00F
:1021C000E4EEF0E10C94F431C8EDD0E088818F7E2C
:1021D0008883E7EDF0E080818160808384E082BFC6
:1021E00081E08093E20188818E7F888302EE10E097
:1021F000F80110821092DA0081EEC82ED12CF6017F
:10220000108288818F77888388818068888388811D
:102210008F7D888319BC109232021092E1011092D6
:102220001B021092E00190EEE92EF12CF701808163
:102230008B7F808388818160888342E060E080E0DA
:102240000E94A710F60180818E7F8083F801808133
:1022500081608083808188608083F70180818E7FA8
:102260008083888180618883CDB7DEB7E8E00C94F5
:10227000103290918A039F708823A9F081E0980F13
:102280009F7080918A03807F892B80938A030E94AC
:102290003A1040918A0350E060E070E08FE090E0F7
:1022A0000E94783208958FEFEACF90918A03929539
:1022B00093708823B9F081E0980F93709295907F86
:1022C00080918A038F7C982B90938A030E943A1006
:1022D00040918A0350E060E070E08FE090E00E945F
:1022E000783208958FEFE8CF81E08093E00080E2BC
:1022F0008093D8001092C9008FE19EE40197F1F716
:1023000000C0000087E090EBDC0180938D03909388
:102310008E03A0938F03B093900388E19CE00FB6E7
:10232000F894A895809360000FBE90936000FFCF53
:102330000F931F93CF93DF93EB018A0190913202A9
:10234000943079F58093E9008FEF9091E80095FD46
:1023500007C095ED9A95F1F7000081508111F5CFF6
:102360008091E80085FF1DC00E94D10F811114C02B
:102370008091E80085FD06C08091E8008E7780930B
:10238000E800F2CF88818093F10001501109011516
:10239000110511F02196ECCF8091E8008E778093A3
:1023A000E800DF91CF911F910F910895CF93DF93B4
:1023B000D82FC92F48E050E0682F792F81E00E9484
:1023C000981188E0ED2FFC2FABEEB1E001900D925B
:1023D0008A95E1F7DF91CF910895BC0140E250E08A
:1023E00085E00E9498110895BC0145E050E082E02C
:1023F0000E9498110895BC0143E050E085E00E94DE
:1024000098110895A0E0B0E0E8E0F2E10C94F23118
:10241000F82EE92EB62EA72E8A018091DE01CC245B
:10242000C394D12C8A3018F48AE0C82ED12CC1E094
:10243000D0E06B2D7A2D8F2D9E2DF80109958111FD
:1024400016C02196CC16DD0694F0CC9FC001CD9F1E
:10245000900D900D112420E030E045E34A95F1F70E
:1024600000002F5F3F4F28173907B9F7E2CFCDB7EC
:10247000DEB7EAE00C940E321F93CF93DF93962FD2
:10248000122F632F8430D8F49A30C8F44630B8F451
:10249000C42FD0E0CC0FDD1F2CE0929FC00DD11DCA
:1024A000112498E7899FC00DD11D1124CE01899672
:1024B0000E946632612FCE018A960E946632DF91B9
:1024C000CF911F910895AF92BF92CF92DF92FF926A
:1024D0000F931F93CF93DF93A12CB12C00E06501E4
:1024E00010E013C0FE01259134914F2D612F802FF4
:1024F0000E943C122296F39486E0F812F3CF86E015
:10250000C80ED11C1F5F1A3039F0E601CC0FDD1F59
:10251000C854DD4FF12CE6CF0F5F8CE3A80EB11C41
:102520000430E9F6DF91CF911F910F91FF90DF907A
:10253000CF90BF90AF900895CF93DF93C9E0D2E0E2
:1025400060E0CE010E9466322196C11584E0D80772
:10255000B9F7DF91CF910895882381F064E285E295
:1025600090E00E94663261E086E290E00E9466326E
:1025700064E187E290E00E94663208956FEF85E2A1
:1025800090E00E9466326FEF86E290E00E94663231
:102590006FEFEFCF80E00E94AC1260E088E290E045
:1025A0000E9466320E9463120E949C1281E00E9487
:1025B000AC1208950F931F93CF93DF93843030F5BF
:1025C0006A3020F5463010F5C42FD0E0CC0FDD1F67
:1025D0002CE0629FC00DD11D112438E7839FC00DF0
:1025E000D11D1124CE0189960E944232082F10E09D
:1025F000102F0027CE018A960E9442329801282B84
:10260000C901DF91CF911F910F91089580E090E073
:10261000F8CF462F672F7A3038F4463028F48430CC
:1026200018F40E94DA12089580E090E00895A0E086
:10263000B0E0EDE1F3E10C94F5317C010091880309
:1026400080918703082BC3E0D0E010E0C8010C2E76
:1026500002C0959587950A94E2F780FD09C02197FD
:10266000A8F7D12C8D2DCDB7DEB7E7E00C94113251
:10267000DC2EB7018C2F0E9409130E948F0C01974A
:1026800071F3F0CF0F931F93CF93FC018781908557
:10269000009799F4858100811181882391F0662348
:1026A00081F0C8010E941713C82F682FC8010E942B
:1026B0001C0BB8018C2F0E940913CF911F910F9111
:1026C0000895C8010E94530BC82FF3CFCF93DF9317
:1026D000D82FC92F0E9417136D2F7C2F0E9409132A
:1026E0000E948F0CDF91CF910895FC018481882393
:1026F000B1F0878190850097A1F00E948F0C282F60
:1027000092959F709630B9F088F4925F9F709230E6
:1027100030F481E0203FA1F058F4283E58F080E0EA
:1027200009C0808191810E946613E9CF9A5FEECF44
:10273000243FA9F7089581E0283E18F0213FF9CF02
:102740000895089585E290E00E944232843289F42F
:1027500086E290E00E944232813059F487E290E0B4
:102760000E94423291E0843109F090E0892F81701B
:10277000089580E0FCCF9091FC02809109029813AB
:1027800008C08091FD02882329F190910A028917DF
:1027900009F1E0918702F09188023097A9F581E074
:1027A0002091FC02EDEFF2E094E0DF011D929A959A
:1027B000E9F795E0ECEFF2E0A9E0B2E001900D92CC
:1027C0009A95E1F7811127C081E0211101C080E0D5
:1027D000817008958091FE02882321F090910B0270
:1027E0008913D7CF80910003882321F090910D02A7
:1027F0008913CFCF8091FF02882321F090910C02A2
:102800008913C7CF80E0CCCF0680F781E02D8CEF15
:1028100092E00995C4CF81E0DBCF815D883090F4F0
:102820004091FC0221E030E0F90102C0EE0FFF1FF1
:102830008A95E2F7CF01662331F0842B8093FC0266
:102840000E94BB13089580958423F8CFADE1B0E0DA
:10285000ECE2F4E10C94F93180915F02811105C042
:1028600080E06D96E3E00C94153280910502909122
:102870000602A0910702B0910802BC01CD010E949E
:10288000360F6A8F7B8F8C8F9D8F672B682B692B00
:1028900039F30E94D70E609305027093060280936D
:1028A000070290930802809160028111E9C0409173
:1028B000FC025091FD026091FE027091FF02809136
:1028C00000030E94F21B2093FC023093FD02409310
:1028D000FE025093FF026093000385E0ECEFF2E00C
:1028E000DE01169601900D928A95E1F78091FD0226
:1028F00081958F8395E0FE013696DE01509601901A
:102900000D929A95E1F795E0FE0170969E012F5F7A
:102910003F4FD90101900D929A95E1F795E0F901A9
:10292000ACEFB2E001900D929A95E1F795E0ECEFF3
:10293000F2E0DE01559601900D929A95E1F74091F3
:10294000FE026091FF025091000390915F02122FEE
:10295000732F992309F46BC090918A0396FF3FC0AF
:102960002091020230910302280F311D87FD3A9514
:1029700030930302209302028091000290910102A1
:10298000840F911D47FD9A95909301028093000258
:10299000F90137FF04C0EE27FF27E21BF30B37973F
:1029A0004CF051E0121613060CF05FEF1092030288
:1029B000109202029C0197FF04C022273327281B94
:1029C000390B273031054CF061E0181619060CF070
:1029D0006FEF109201021092000240E080E08E8BB7
:1029E0004F8B688F598F95E0FE017596DE011B961F
:1029F00001900D929A95E1F795E0FE013B96A12F8B
:102A0000B72F01900D929A95E1F795E0E12FF72FFE
:102A1000DE01169601900D929A95E1F795E0FE0180
:102A20003696DE01559601900D929A95E1F78E8BC0
:102A30004F8B688F598F85E0FE017596DE011696E3
:102A400001900D928A95E1F785E0FE013696DE0150
:102A50001B9601900D928A95E1F785E0FE013B9669
:102A6000ACEFB2E001900D928A95E1F70E94BB13A2
:102A7000811110C080910402817010920402F1CE85
:102A800085E0E3E3F2E0ACEFB2E001900D928A95CD
:102A9000E1F723CF81E090E0EFCF809106039091A2
:102AA0008903892B90913B01992349F1909102036D
:102AB00097FF25C08093AF0140E250E067E672E0E7
:102AC0008EEA91E00E949A32892BC1F080E2EEEA10
:102AD000F1E0A7E6B2E001900D928A95E1F7E0916E
:102AE0008702F0918802309749F086E08093AE012A
:102AF0000480F581E02D8EEA91E009950895809398
:102B0000A60148E050E069E872E086EA91E00E94A0
:102B10009A32892B99F388E0E6EAF1E0A9E8B2E07D
:102B200001900D928A95E1F7E0918702F091880279
:102B3000309721F30280F381E02D86EA91E0DDCF2A
:102B4000CF93C82F8823B1F18CEF8C0F813AA0F579
:102B500080913B01882301F18091020387FF1CC013
:102B6000EC2FE695E695E695F0E0E255FE4F828182
:102B700090E04C2F477021E030E002C0220F331F5D
:102B80004A95E2F782239323892B79F08C2F0E94B8
:102B9000AA0E0E944D1509C0E8EAF1E08191C8171C
:102BA000A9F321E0EE3AF207C9F78C2F0E94760EC6
:102BB0000E944D15CF91089580E28C0F883068F403
:102BC000C77081E090E001C0880FCA95EAF7C09114
:102BD0008903C82BC0938903EBCF8BE58C0F83301F
:102BE00038F42C2F2452330BC9010E942A0EE2CF55
:102BF000E8E5EC0FEB3150F4F0E0EE0FFF1FE35986
:102C0000FE4F808191810E94500ED4CF83E38C0FC0
:102C1000833180F661E08C2F0E940D14CBCF882386
:102C2000B9F19CEF980F913A28F40E94AA0E0E94E5
:102C30004D15089590E2980F983088F4877021E040
:102C400030E0A90102C0440F551F8A95E2F7CA017E
:102C5000809590918903892380938903E8CF9BE530
:102C6000980F933028F480E090E00E942A0E089597
:102C700098E5980F9B3128F480E090E00E94500E78
:102C8000089593E3980F933118F460E00E940D14B7
:102C900008950F931F93CF93C82F00E010E089335E
:102CA00011F400E510E08C2F0E94A015011511050C
:102CB00039F48C2F0E940F16CF911F910F91089518
:102CC0008FE99FE00197F1F700C000000150110962
:102CD000EDCF882339F090918903892B8093890364
:102CE0000E944D150895882341F0809590918903A5
:102CF0008923809389030E944D15089510928903BA
:102D000080913B018823C1F08091020387FF14C0AA
:102D1000E0EBF1E08EE1DF011D928A95E9F780E0BA
:102D200090E00E942A0E80E090E00E94500E1092E7
:102D300006030E944D150895E8EAF1E086E0EBCF26
:102D40000E947E162FEF84E39CE02150804090404B
:102D5000E1F700C0000088E19CE00FB6F894A89568
:102D6000809360000FBE90936000FFCFAAE2B0E0B6
:102D7000ECEBF6E10C94F93183EE91E0FC01019665
:102D80002091F100208321E08B3E9207B9F78091DA
:102D9000E401893009F456C0C8F4823009F4B4C0A3
:102DA000833009F483C0813071F18091E80083FFA2
:102DB000E8C08091E3019091E4019A3008F0E1C00D
:102DC000E92FF0E0EE54FD4C0C9435328A3009F4D2
:102DD0008AC08B3051F78091E301813231F78091C5
:102DE000E7019091E801892B01F78091E800877F46
:102DF0008093E8000E94B20F8091E50180933B012F
:102E00000E947E16D2CF8091E301813A71F68091C3
:102E1000E800877F8093E8008091E7019091E801C6
:102E2000892B61F060E080E090E070E00E94590F33
:102E30008091E8008B778093E800B7CF68E08BEE55
:102E400091E0F3CF8091E301813209F0AECF809120
:102E5000E7019091E801009719F0039709F0A5CFD9
:102E60008091E800877F8093E8008091E80082FFEE
:102E700018C09091F3008091F200029731F4809194
:102E8000F100813011F0863021F48091F1008093BF
:102E9000F3018091E8008B778093E8000E94B20FE5
:102EA00084CF809132028111E0CF7FCF8091E30106
:102EB000813A09F07ACF8091E7019091E801892B5E
:102EC00009F073CF8091E800877F8093E8008091BC
:102ED000E80080FFFCCF80913B018093F10080915E
:102EE000E8008E77D9CF8091E301813209F05DCF80
:102EF0008091E800877F8093E8000E94B20F809164
:102F0000E6018093DF0151CF8091E301813A09F01E
:102F10004CCF8091E800877F8093E8008091E800A3
:102F200080FFFCCF8091DF01D8CF803889F08238D4
:102F300041F58091E7018F70873018F58093E900A3
:102F40008091EB0085FB882780F91092E90006C08C
:102F50008091E00190911B02911182609091E800B4
:102F6000977F9093E8008093F1001092F100809198
:102F7000E8008E7723C0811116C08091E501813071
:102F800011F18091E80083FF0AC08091E800877FFB
:102F90008093E8008091EB0080628093EB00AA961A
:102FA000E3E00C941532823061F78091E5018823CB
:102FB00089F01092E9008091E800877F8093E80013
:102FC0000E94B20FDECF81E0933009F080E0809361
:102FD0001B02EFCF8091E7018F702FEF280F263073
:102FE00080F68093E9002091EB0020FFE2CF933040
:102FF00031F48091EB0080628093EB00DACF909106
:10300000EB0090619093EB0021E030E0A90102C059
:10301000440F551F8A95E2F74093EA001092EA00A8
:103020008091EB008860E8CF8111ABCF1091E50172
:103030001F778091E3008078812B8093E30080915B
:10304000E800877F8093E8000E94B20F8091E8003B
:1030500080FFFCCF8091E30080688093E30083E0F1
:10306000111101C082E0809332028BCF80588230F0
:1030700008F087CF4091E5015091E6014C3D83E097
:10308000580799F583E08A838AE289834FB7F894D9
:10309000DE01139620E03EE051E2E32FF0E0509392
:1030A0005700849120FF03C082958F703F5F8F701F
:1030B0008A30C8F0895C90E08D939D932F5F243116
:1030C00061F74FBF8091E800877F8093E8006AE254
:1030D00070E0CE0101960E94590F8091E8008B7735
:1030E0008093E8004ECF805DE6CF8091E70190911C
:1030F000E801252F33272330310509F44AC078F53C
:103100002130310509F479C084E790E0E6EDF1E083
:103110002230310509F035CF2091E800277F209338
:10312000E8002091E9013091EA018217930708F441
:103130009C0140E02115310509F064C0411162C0D5
:103140008091E80082FDC9CF80913202882329F264
:10315000853019F28091E80083FFF2CFBECF213293
:10316000310509F43BC02232310509F00ACF843021
:10317000910508F006CFFC01EE0FFF1FE05BFE4F4C
:103180000190F081E02D845B9E4FDC018C9190E0FA
:1031900011C0CA019927413089F082309105B1F000
:1031A000892B09F0EECEE4EBF2E0E4918E2F90E073
:1031B000E4EBF2E0009709F4E4CEAECFEEE8F2E003
:1031C000E4918E2F90E0EEE8F2E0F4CFECE5F2E04F
:1031D000E4918E2F90E0ECE5F2E0ECCF84309105A5
:1031E00008F0CFCEFC01EE0FFF1FE85AFE4F019012
:1031F000F081E02D89E090E08FCF82E190E0EAE479
:10320000F2E08ACF80913202882309F466CF8530BC
:1032100009F463CF8091E80083FD5FCF8091E800DF
:1032200082FD8ECF8091E80080FF84CF9091F300E3
:103230008091F2002115310519F08830910550F088
:1032400041E0089709F040E08091E8008E77809394
:10325000E80070CF44914093F1003196215031093C
:103260000196E8CF803809F08CCE8091E800877F06
:103270008093E8008091E1018093F10078CE811184
:1032800080CE1091E501123008F07BCE8091E800ED
:10329000877F8093E8001093E1010E94B20F112311
:1032A000F9F084E08093320242E061EC81E00E9418
:1032B000A71042E161EC82E00E94A71042E261ECBB
:1032C00085E00E94A71042E261EC83E00E94A71013
:1032D00042E260EC84E00E94A7108091320251CE5D
:1032E0008091E30087FDDDCF81E0DCCFA8E0B0E096
:1032F000ECE7F9E10C94F93180915202909153027C
:10330000A0915402B0915502BC01CD010E94360F2C
:1033100011E0643671058105910578F10E94F40E83
:10332000DC01CB010296A11DB11D89839A83AB8379
:10333000BC8380911C0190911D01805C9D4F209168
:103340001B01422F50E0253010F044E050E0BE0158
:103350006F5F7F4F0E94A73282E090E00E946E3044
:10336000182F882351F00E94D70E60935202709359
:1033700053028093540290935502812F2896E3E0E4
:103380000C941532A5E0B0E0E8ECF9E10C94EF31D3
:10339000E62E6A01722EA32E882E880F9908C4018A
:1033A0000E946E30B82E882309F46EC0C40123E059
:1033B000880F991F2A95E1F7FC01E55FFE4F2381F5
:1033C000422F50E0222311F041E050E0855F9E4FF4
:1033D000DC0114966D917C91605C7D4FCE0101966D
:1033E0000E94A732D6018D919D910D90BC91A02D88
:1033F000BC01CD010E94360F6A837B838C839D8341
:10340000643671058105910530F4C8010E942110D0
:1034100099818917C9F10E2C000CFF08C7010E9481
:103420006E30B82E811106C0B12C8B2D2596EDE0A3
:103430000C940B32B70183E0660F771F8A95E1F792
:10344000FB01E55FFE4F8381482F50E0863010F08E
:1034500045E050E0655F7E4FFB0164817581605CF3
:103460007D4F872D9A2D0E94A732C8010E942110FE
:1034700099818913D9CF0E94D70ED6016D937D9380
:103480008D939C931397D1CF85E0F801A72DBA2D8A
:1034900001900D928A95E1F7C8CFA5E0B0E0E3E591
:1034A000FAE10C94F6317B0101E412E09E012F5FFA
:1034B0003F4F4BE552E061E080E00E94C219882353
:1034C00049F095E0FE013196A6E5B2E001900D923B
:1034D0009A95E1F795E0E6E5F2E0D70101900D92CB
:1034E0009A95E1F72596E6E00C941232AAE0B0E056
:1034F000ECE7FAE10C94F83180916002882309F43A
:103500004DC00BE412E09E012A5F3F4F4CE352E0B6
:1035100064E083E00E94C219882391F095E0FE01E7
:103520003696DE01119601900D929A95E1F795E09D
:10353000FE013196A3E3B2E001900D929A95E1F776
:1035400000913802109139020115110541F12091C5
:103550003A0230913B022017310709F110935102D2
:10356000009350028091340190913501805C9D4F11
:1035700020913301422F50E0233010F042E050E020
:1035800060E572E00E94A73285E090E00E946E3014
:10359000882329F010933B0200933A0281E02A9697
:1035A000E4E00C941432CF9328E030E043E060E094
:1035B00080EF0E94EB30C82F811105C00E94C031FE
:1035C0008C2FCF91089585E08A95F1F70000F8CF10
:1035D000CF93C82F0E94D31A8823C9F08C2F0E9442
:1035E00060318FE792E00197F1F700C000000E9480
:1035F0007831C82F95E09A95F1F700000E94C0310C
:1036000085E68A95F1F700008C2FCF910895C0E0F0
:10361000FBCF8FE00E94E81A8F5F24E6829FC001F3
:1036200011240895A2E0B0E0E8E1FBE10C94F73149
:10363000182FF62E0E94D31A082F811106C000E021
:10364000802F2296E5E00C941332103549F08091DA
:103650006002EEEFF1E0811102C0EDEFF1E01082C7
:1036600010681983FA8262E070E0CE0101960E9430
:103670009031892B21F78AEB8A95F1F700C00E94DF
:10368000C03183E492E00197F1F700C00000D8CF89
:1036900060E08436910550F067E784342FE29207AA
:1036A00028F464E670E00E94213261508FE00E94AD
:1036B000121B08950F931F93CF93DF930E94E33063
:1036C0000E94D31A882309F488C025ED2A95F1F7C2
:1036D00000000E94C03185ED8A95F1F700006AE58F
:1036E0008AE30E94121B882309F477C09FEFE0E76A
:1036F000F2E09150E040F040E1F700C0000082E0CD
:103700000E94E81A83E00E94E81A84E00E94E81A06
:1037100085E00E94E81A86E00E94E81A6DE183E1E4
:103720000E94121B882309F458C08FE39CE901977B
:10373000F1F700C0000068E183E10E94121B0E94C3
:10374000D31A882309F449C082EE0E94603190E5C3
:103750009A95F1F7C8E9D4E006E914E1FE018491F5
:103760000E946031F0E5FA95F1F721960C171D07DC
:10377000A9F78FE193E00197F1F700C000008AE21A
:103780000E94E81A60E080E10E94121B0E94C03192
:10379000EFE3FCE93197F1F700C000006FE08FE044
:1037A0000E94121B8FE99FE00197F1F700C0000013
:1037B00060E080E10E94121B66EA81E10E94121B18
:1037C00062E083E60E94121B80E00E94E81A8FE309
:1037D0000E94E81A8AE20E94E81ADF91CF911F91B5
:1037E0000F910895A6E1B0E0E8EFFBE10C94F83109
:1037F0004A8B5B8B6C8B7D8B8E8BFE01379686E0C4
:10380000DF011D928A95E9F7809160028F0188237C
:1038100009F448C08091FE01811151C060E080E54B
:103820000E94121B811141C086E0FE013796DE0125
:10383000119601900D928A95E1F78F8187FB882779
:1038400080F949855A852B853C85998180FB97F9BC
:1038500099835C834B833E832D8396E0FE013196F2
:10386000DE01179601900D929A95E1F79F8193FDE5
:1038700004C0811160C01092FF0185E0FE017296C4
:10388000DE011D9601900D928A95E1F72D853E850A
:103890004F855889698970E080E090E06696E4E0A1
:1038A0000C9414328091FD01B7CF80916002EEEF4D
:1038B000F1E0811102C0EDEFF1E081E080830E9430
:1038C000D31A882309F4B0CF80E50E946031BAEBA7
:1038D000BA95F1F700C066E070E0C8010E94A83117
:1038E0008F818770882349F080916002EEEFF1E0CC
:1038F000811102C0EDEFF1E010820E94C0314985D4
:103900005A855195419551095A8749872B853C85A0
:103910003195219531093C872B8786E0FE0137964A
:10392000DE01119601900D928A95E1F78F8187FB58
:10393000882780F98ACF8091FF01811103C081E03F
:103940008093FF01842F403851054CF08FE78B8B1B
:10395000822F2038310544F08FE78C8B8ECF403892
:103960005F4FACF780E8F3CF20383F4FB4F780E8E3
:10397000F4CF1F921FB61F9211248F939F93AF9382
:10398000BF9380911A02811113C08091F40190912C
:10399000F501A091F601B091F7014196A11DB11D6D
:1039A0008093F4019093F501A093F601B093F70191
:1039B000BF91AF919F918F911F901FBE1F9018953F
:1039C0002FB7F8948091F4019091F501A091F60140
:1039D000B091F7012FBF08950F931F93CF93DF93FB
:1039E000C62FD42F122F8823A9F0609301030E94C1
:1039F000E01C9093DD018093DC01C77081E001C081
:103A0000880FCA95EAF70E946916DF91CF911F913E
:103A10000F91089580910103681332C08091DC01F9
:103A20009091DD010E94270F8A3A910548F5CD1348
:103A30000CC0812F0E944916D77081E001C0880F09
:103A4000DA95EAF70E947316E0CFC77001E0802F85
:103A500001C0880FCA95EAF70E94731680E28D0FA5
:103A6000883050F48D2F877001C0000F8A95EAF7D7
:103A7000802F0E946916DDCF812F0E944916C5CF85
:103A8000C77081E001C0880FCA95EAF7DBCFA8E0D4
:103A9000B0E0EDE4FDE10C94F0317C01DC01149622
:103AA0008C91882309F499C061E0C7010E944213F8
:103AB0008C01F7018581882309F42CC198013757BF
:103AC0002038310508F0EBC4003108F086C08FEFD4
:103AD00093E00E944232811180C029E0E22E22E070
:103AE000F22E011149C01A821982FE01339686E036
:103AF000DF011D928A95E9F79AE0892E6701BFEFF1
:103B0000CB1ADB0AC7010E94423289831A828823BA
:103B100009F463C0813009F064C087010E5F1F4F54
:103B2000C6010E9442328A83882309F456C09FEF5F
:103B3000980F933080F5E3E0EE0EF11CC8010E946F
:103B400042328B83882309F448C01C828E010F5FA8
:103B50001F4FD8018C91882389F2813009F07CC0F5
:103B600011969C91119712968C919130E1F50E5F10
:103B70001F4F0E9449163DC0E114F4E0FF0669F1B1
:103B8000C7010E94423297012F5F3F4F7901811197
:103B9000F3CF0150A6CF8430B9F482E0E82EF12CA7
:103BA000C8010F5F1F4F0E944232E1E0F0E0EC0FCE
:103BB000FD1FEE0DFF1D8083882379F08C3731F4D3
:103BC000FE01EE0DFF1D12827801C0CFFFEFEF1A4C
:103BD000FF0A27E0E216F10419F72896ECE00C94AE
:103BE0000C327601B3CF923039F40E5F1F4F0E9432
:103BF000A0150F5F1F4FADCF933029F40E5F1F4FFD
:103C00000E940F16F6CF943019F00F5F1F4FF1CFBF
:103C10000E5F1F4F20E030E0A8014F5F5F4F8053E1
:103C2000990B8A30910560F02115310511F38FE968
:103C30009FE00197F1F700C0000021503109F4CF57
:103C4000829EB001839E700D11249C01260F371FA8
:103C5000F80181818A01E0CFE82FF0E0EA53FB4EC2
:103C60009490282F26952695269530E0F901EA5460
:103C7000FB4E94918770F901EA55FB4EA490B12C4C
:103C8000082E02C0B594A7940A94E2F7A1E0AA22F4
:103C9000BB24F901EA56FB4EC490D12C082E02C079
:103CA000D594C7940A94E2F7B1E0CB22DD24292F02
:103CB00030E002C0359527958A95E2F720FD0BC0CC
:103CC000A114B104E9F4892D0E944916CD2809F404
:103CD00090CF8CE24ECF81EE0E94A015A114B104CA
:103CE00029F4892D0E94491681EE11C086EE0E94AA
:103CF000A015892D0E94491686EE0E940F16F4CF5A
:103D000086EE0E94A015892D0E94491686EE0E941B
:103D10000F16DCCFF801FE57E830F10508F099C026
:103D2000E454FD4C0C9435320E94840C91E08927B8
:103D30000E943911F70185818111E2C00631FCE74B
:103D40001F0709F0B3C1809104038111BAC189E250
:103D50000E94AA0E54C00E94840CEACF0E94840CD8
:103D600091E089270E945511E5CF0E94840CFACF7B
:103D700080918A03806880938A030E943A10D70159
:103D800015968C91811125C082E008373CE7130716
:103D900009F492C1D70117968D919C9118970097BD
:103DA00009F0A7C1CD90DC90C6010E94530B182FDB
:103DB000B601812F0E9409139CC180918A038F77DD
:103DC00080938A030E943A10F7018581882309F4C1
:103DD0006DC11092010306314CE7140709F069C068
:103DE000809189038A7A91E0811101C090E09093DB
:103DF0000403882309F463C185E30E94760E0E94C0
:103E00004D15EBCE90918A03892F97FB87F9805847
:103E100080938A030E943A108DCF80918A03806438
:103E200080938A030E943A10F7018581ABCF80917D
:103E30008A038F7B80938A030E943A10D7011596DC
:103E40008C91C4CF90918A03892F8F7B96FF8064D9
:103E5000DFCFF801E851FC47E730F10508F06ACF01
:103E6000EC53FD4C0C94353226E241EE61EE0E949B
:103E7000EC1CB3CE27E245EE65EEF9CF26E241EE2B
:103E800060EEF5CF27E245EE64EEF1CF26E241EE9B
:103E900062EEEDCF27E245EE66EEE9CF28E241E0A3
:103EA000EBCFD70115968C91882309F46DCF109232
:103EB000010307378CE7180709F405C182E00837CA
:103EC0009CE7190709F400C10130ACE71A0709F4AF
:103ED00009C10330BCE71B0709F4FEC00115ECE77C
:103EE0001E0709F001C10E947E16FFEF24E33CE0AB
:103EF000F15020403040E1F700C000000E947411F2
:103F000010920103C8019057839708F064CF84E0B2
:103F100090E00E9450329093030380930203F801D3
:103F2000E150F047E232F10520F4E553FD4C0C94EA
:103F30003532809102038160809302036091020315
:103F40007091030384E090E00E9484320E947E1608
:103F500044CE80910303886080930303EFCF809168
:103F600002038260E9CF809102038460E5CF8091F3
:103F700002038860E1CF809103038160EDCF8091DF
:103F800003038260E9CF809102038061D5CF8091E5
:103F900002038062D1CF809102038064CDCF0E9462
:103FA0007E16809102038068C7CF809102038C60E7
:103FB000C3CF809103038360CFCF809102038E7FB4
:103FC000BBCF80910303877FC7CF809102038D7F92
:103FD000B3CF809102038B7FAFCF80910203877FA5
:103FE000ABCF809103038E7FB7CF809103038D7F8A
:103FF000B3CF809102038F7E9FCF809102038F7D8C
:104000009BCF809102038F7B97CF0E947E16809179
:1040100002038F7791CF80910203837F8DCF8091B0
:1040200003038C7F99CF8091020382FB992790F93B
:1040300021E0922790FB82F990FB83F97DCF80915C
:104040000303982F909591708E7F892B90FB81F9B7
:1040500083CF90910203892F8F7B96FF80646CCF72
:104060000E947E1690910203892F97FB87F9805852
:1040700063CF61E08EE090E00E9466325FCF60E047
:10408000F9CF90910203892F8F7E94FF806154CFE6
:1040900090910203892F8E7F90FF81604DCF909188
:1040A0000303892F877F93FF886056CF07372CE75C
:1040B000120709F069CE81E00E94761007C089E2FC
:1040C0009CCE85E345CE81E00E946A1043E062E029
:1040D00081E00E94861081CD6FEF7FEF80E090E05D
:1040E0000E9484320E94A016F70187819085009774
:1040F00099F00E948F0C182FF70165812681229577
:104100002F70E92FE295EF70903C08F044C0F0E08A
:10411000E351FD4C0C943532C080D180C6010E9421
:104120001713182F682FC6010E941C0B41CE092FB0
:104130000F70903110F00295007F6623C9F00023C4
:1041400069F080E2810F883010F011110BC080916E
:104150008903802B809389030E944D15812F0E9433
:10416000A01519C080910603802B80930603F4CF1D
:10417000812F0E940F16002371F0009580E2810FBD
:10418000883010F011110CC0809189038023809336
:1041900089030E944D1560E0C7010E9442131DCDA6
:1041A00080910603802380930603F3CF892F8F70BD
:1041B000907F903211F08295807F113061F46623F8
:1041C00029F0263040F70E946916E5CF253018F710
:1041D0000E947316E0CF662319F02223A1F3BECF0D
:1041E0002223B1F3193349F4FFEF27EE33E0F15006
:1041F00020403040E1F700C00000812F0E940F16E0
:10420000CACF892F869586958370882359F081308F
:1042100011F6812F9370611102C080E090E00E943E
:10422000500EB9CF812F9370611102C080E090E0F1
:104230000E942A0EB0CF0E940D14ADCF892F83703B
:10424000811136C0611129C0812F829586958770B2
:10425000880F880F212F2F70082E01C0220F0A947B
:10426000EAF71071112341F04FE050E001C0440F14
:104270008A95EAF7142F109596959695937092303B
:1042800091F0812F822B933031F080918703913010
:1042900039F0212B82230E94190B0E94190E7BCF2B
:1042A000822B812BF8CF212B809187038227F3CF9C
:1042B000662361F190FFF1CF812F829586958770FB
:1042C000880F880F212F2F70082E01C0220F0A940B
:1042D000EAF71071112341F04FE050E001C0440FA4
:1042E0008A95EAF7142F10959695969593709230CB
:1042F00099F0812F822B933031F080918803913097
:1043000041F0212B82230E945610C7CF823028F221
:10431000D3CF822B812BF7CF212B8091880382274B
:10432000F2CF092F0F70662339F0802F0E946A1098
:10433000812F0E946916B1CF0E947316802F0E94B0
:104340007610ABCF823F81F160F4803F99F0813FDE
:1043500021F16623E1F12223B9F1812F0E94A015FA
:104360009CCF833F31F16111F6CF21113DC0892FE0
:104370008F71E5CF662379F0253008F08ECF292F95
:104380002F7181E090E001C0880F2A95EAF79091A3
:1043900088038927B8CF2530F0CF892F8F71662306
:1043A00071F20E946A1079CF892F8F716623C9F349
:1043B000C6CF80E0662309F4A6CF9F7181E001C0DB
:1043C000880F9A95EAF79FCF892F8F71EACF222322
:1043D00071F2893349F44FEF87EE93E0415080400A
:1043E0009040E1F700C00000812F0E940F1655CFCA
:1043F000833F99F100F5813FD1F1823F81F1803F08
:1044000011F180910503222309F43DC0882341F076
:104410008091070391E08927809307031092050399
:10442000812F61119CCE0E940F1689E0D7011D9249
:104430008A95E9F7B0CE843FA9F0853F11F7611165
:10444000AACE81E007C0662309F4A5CE80910703B8
:1044500091E08927809307039ECE81E068276093CF
:10446000070399CE611197CE1092070394CE66236D
:1044700039F080910503882349F3109205038BCE10
:10448000253020F388CE882309F485CE611183CEB0
:104490008091070391E0892780930703EECFF8010D
:1044A000FE57E830F10508F0D4CCE750FD4C0C94F1
:1044B00035328091E102803178F48091E0028823E6
:1044C00059F0E0919202209191023091DC024091EA
:1044D000DB0259E02E1301C008956E2F70E05E9F3D
:1044E000F0011124DF01AD56BD4F14968C91149745
:1044F000882361F111968C911197831327C08C91B9
:10450000841324C015968C91159781111FC01296A3
:104510008D919C91A091DD02B091DE028A1B9B0BD4
:104520008A3A910598F48091E1028F7080618093BE
:10453000E102E756FD4F80818F70806180838BEDB3
:1045400092E00E94471D0E94870B0895FB0131965F
:10455000E770C0CFAFE0B0E0E0EBF2E20C94EF31F7
:104560008C0186E0F801DE011A9601900D928A9581
:10457000E1F7D8019C911596DC9015971296AD90B5
:10458000BC9013971496FC9014978BED882E82E0C4
:10459000982E7090DF0271102DC0FF2041F1DD20B8
:1045A00009F4AAC1C8010E947513882309F4A4C1A3
:1045B00089E0F801D40101900D928A95E1F7B1E00C
:1045C000FB1213C08091DB029091DC020E94661303
:1045D00092959F70963049F4863F39F08091070399
:1045E0008F2580930703F09205030E945922FF2430
:1045F000F3943EC0E090E0022091DD023091DE02B3
:10460000F501E21BF30BEE2009F43DC1EA3AF10596
:1046100008F0F8C0FF2059F32091DC0211968C912C
:10462000C090E102BFE0BC1508F49FC0FD2C8213CE
:1046300024C02091DB02291320C04091E202509156
:10464000E302F8012781308542175307B1F4D110F6
:1046500086C08C2D8F7080618093E1028BED92E09B
:104660000E94471D8091E102D80116968C93F12C8F
:104670008F2D2F96EDE00C940B32D11070C0E0918D
:10468000920220919102AE2F39E0A21317C039E0B7
:104690002E1337C08A859B850E946613292F229589
:1046A0002F70903408F441C02A5F2F70223008F434
:1046B00050C0C8010E94471DFE2CDACF4A2F50E09F
:1046C0003A9FD0011124AD56BD4F11966C911197B0
:1046D000861307C06C91961304C015966C916111F6
:1046E00004C0DA011196A770D0CF8BED92E00E9442
:1046F000471D89E0EBEDF2E0DF011D928A95E9F7B5
:10470000B6CF4E2F50E03E9FF0011124ED56FD4FE5
:104710006181861306C06081961303C065816111B3
:10472000A6CFFA013196E770B3CF9F70223038F0F0
:10473000992351F0F8019681903130F499CF992363
:1047400019F0882309F494CF805E883008F490CF64
:10475000B0CF803F08F48CCF815F8230F7CF80915B
:10476000E10281608093E10282CF821320C08091B8
:10477000DB0289131CC02091E2023091E302D801D0
:1047800017968D919C9118972817390781F4D110AD
:104790000EC01696CC92C8010E94471D89E0F80110
:1047A000ABEDB2E001900D928A95E1F720CFC80100
:1047B0000E947513882309F49FC0DD2009F49CC072
:1047C0008091E1028032A8F08091DB029091DC02BE
:1047D0009A838983BC82AB827D821E82CF82809144
:1047E000E2029091E30299878887CE0101960E94A8
:1047F000471D89E0F801ABEDB2E001900D928A957A
:10480000E1F7F3CEE090E102BFE0BE1508F06DCF16
:10481000FF2009F4ECCE2091DC02F80181812813FD
:1048200019C08091DB02891315C02091E2023091FA
:10483000E302878190852817390761F4D1100AC0F7
:10484000E682C8010E94471D89E0D4011D928A9525
:10485000E9F7CDCEC8010E947513882309F44CC036
:10486000DD2009F449C08091E102803210F280918C
:10487000DB029091DC029A838983BC82AB827D82C9
:104880001E82EF82ACCFEA3AF105D0F5FF2009F4A1
:10489000AECEDD2089F12091DC02F8018181281360
:1048A00021C08091DB0289131DC02091E20230916A
:1048B000E3028781908528173907A1F48091E102EE
:1048C00080FD6CCF803108F469CF8683982F907F6C
:1048D000903F09F460CF982F907F905F8F70892B65
:1048E000868359CFC8010E947513811182CF8091B0
:1048F000E10281608093E102C8010E94471D77CEEA
:1049000089E0D401FACEA2E1B0E0E9E8F4E20C9447
:10491000F8310A871B872C873D874E875F87688B16
:10492000798B8A8BCE010A960E94AA2281112BC014
:1049300089E0FE013A96DE01119601900D928A956A
:10494000E1F720919102409192028E858823D9F05F
:1049500030E0C90101968770992750E084179507C8
:10496000E9F099E0929FD001939FB00D1124AD56CC
:10497000BD4FFE01319601900D929A95E1F780931B
:1049800091020E94870B19E080919202909191020E
:10499000891312C06296E4E00C9414320E947E16D1
:1049A000109291021092920289E0EBEDF2E0DF01A9
:1049B0001D928A95E9F7E7CF189FC00111248D5603
:1049C0009D4F0E94AA22882329F38091920290E0B1
:1049D00001968770992780939202D6CFEF92FF922B
:1049E0000F931F93CF93DF9380918403E091FC0199
:1049F000CDE0811131C0CDB7DEB7E6E00C941232C4
:104A0000D1E0DE0FD093FC01EE2EF12CCE9FF00111
:104A10001124E45EFC4F84818823E9F0878190852E
:104A2000892B21F481859285019659F400811181A9
:104A300022813381448155816681778180850E94FE
:104A40008324CE9DF001CF9DF00D1124E45EFC4F38
:104A5000148210920603ED2F80918403E81780F2F0
:104A6000109284031092FC01C6CFA0E0B0E0EBE30B
:104A7000F5E20C94EA31C0911B0397E0F92E01E0B6
:104A800010E02DE0222EEE24E39480911A038C1383
:104A900009C00E94EE240E94D80DCDB7DEB7E2E136
:104AA0000C940632D0E0FE01EE0FFF1FE05FFC4FDA
:104AB00080819181F89EB001F99E700D1124635C94
:104AC0007E4FFB01248121115CC060908403ACE126
:104AD000B3E040E050E0712C461508F050C01B9642
:104AE0008D909C901C97FB01408051802FEF3FEFF1
:104AF000312CA32CB12CF501EE0FFF1FE40DF51D99
:104B0000C590D4908C149D0409F49501C114D1046E
:104B100011F03394EECF2F3F3207C9F1F80102C0F4
:104B2000EE0FFF1F2A95E2F77E2A9801032C02C0A0
:104B3000220F331F0A94E2F721503109E72DF0E0EC
:104B40002E173F0709F5249EF001259EF00D112434
:104B5000E45EFC4FF89ED001F99EB00D1124A35CD9
:104B6000BE4F12962D913C9113973087278324E0F6
:104B7000248310821182928781871596EC920E947D
:104B8000ED0D2196C37081CF14961C9214974F5F40
:104B90005F4F1D96A1CF109286031092850310924D
:104BA0003C0180911A0380931B030E94D80D0E9440
:104BB000EE240895AEE1B0E0E0EEF5E20C94EA31C7
:104BC0006D8B7E8B282F8F8B692E988F792E91116C
:104BD000109206032130B1F55A30A0F5463090F519
:104BE000E42FF0E026E0529FE00DF11D1124BF01FB
:104BF0006770772781E090E0DC0102C0AA0FBB1F3D
:104C00006A95E2F7BD01DF0173E0B695A7957A9545
:104C1000E1F7A85FBC4F2C9180910703711002C08F
:104C2000822F8623882309F439C0CF01880F991F6A
:104C3000FC01E95BFA4E5491FC01EA5BFA4E4491A7
:104C4000262B2C93188A198A1A8A4B8B5C8B86E048
:104C5000FE017396DE011A9601900D928A95E1F796
:104C60008E85882379F061E0CE010A960E94421376
:104C70005C018035BCE79B07B1F4772039F181E016
:104C800080933C010A851B852C853D854E855F857B
:104C9000688979898A890E948324C8C0862F809573
:104CA00082238C93CFCF8135ECE79E0729F47720C0
:104CB00069F00E94CB25E6CF82359C4739F47720F6
:104CC00029F080913C018111F4CFD9CF3DE3E32E4F
:104CD00031E0F32E512C812C912C22242394312C61
:104CE000D7016D917C91CC24CA94DD24DA9480E0C4
:104CF000482F50E0FA01EE0FFF1FE60FF71F259136
:104D00003491A216B30609F46A01232B31F08F5FA8
:104D1000EFCF88248394912CE3CF90E0BFEFCB16A4
:104D2000DB0609F445C0F701948145812681911184
:104D300000C190913C01992309F40DC1772009F439
:104D40000AC1411116C041E050E00C2C01C0440FD3
:104D50000A94EAF7242B2683209118033091190333
:104D60002233310530F422E330E0309319032093ED
:104D70001803910102C0220F331F8A95E2F7C9017F
:104D80000197D70116962C9130E08217930779F49A
:104D90008091850390918603009709F44BC00E948F
:104DA000270FC39708F446C081E0F7018483962D4E
:104DB000592AB7E0EB0EF11C8114910409F4A9CF34
:104DC000772009F431C1552009F41CC10E94E01C70
:104DD000909386038093850380918403883030F517
:104DE00091E0980F9093840399E0FE013A96DE01DA
:104DF000119601900D929A95E1F7EDE08E9FC0011A
:104E00001124845E9C4F29E0FE013196DC01019063
:104E10000D922A95E1F72FEF3FEFDC011A963C93B4
:104E20002E9319971C96BC92AE921B976E96E2E158
:104E30000C94063220911B0380911A03922FE0E01C
:104E4000F0E0B7E04B2EEE8EDF2C281314C09093C9
:104E50001B03EE15FF0509F4AACF90E0FC01EE0F4D
:104E6000FF1FE05FFC4F918280820196837099273B
:104E700080931A039CCF622F70E0FB01EE0FFF1F9F
:104E8000E05FFC4F40815181449ED001459EB00DB2
:104E90001124A35CBE4F4D915C9111975D8F4C8F97
:104EA000198E30E0C12CEC2DF0E0EE0FFF1F4C8D81
:104EB0005D8DE40FF51F0591149101151105E1F0C9
:104EC000F7010190F081E02DFB8FEA8F30E005C003
:104ED0000417150709F4698E3F5FE32FF0E0EE0F2A
:104EE000FF1F4A8D5B8DE40FF51F459154914115CD
:104EF000510571F7C394D7CF498D4423B9F0EE8D96
:104F0000FD2D3C1508F0FD0151E05483EE15FF0521
:104F100009F49DCF921305C0EA17FB0711F49F5FB8
:104F200093709B012F5F3F4F23708FCFE0E0F0E045
:104F3000F8CF30E041112FC0D10102C0AA0FBB1F32
:104F40008A95E2F7CD0101972817390799F4C40132
:104F50000E94ED0D0FC030E041111DC041E050E056
:104F600002C0440F551F8A95E2F74150510924179A
:104F7000350709F090E0F10102C0EE0FFF1FCA945F
:104F8000E2F76F01C094D70116968C9116978C2189
:104F900016968C930DCFA9010C2C02C05595479500
:104FA0000A94E2F7C901019782239323892B39F5EB
:104FB00040FF25C0F70182819381892BD9F087E0DA
:104FC000FE013196DF011D928A95E9F70E94E01CEF
:104FD0009C018B839C8384E08D83F7019281838184
:104FE000792F9887898709811A8144E05E816F81D2
:104FF0000E948324D70115961C9291E0BCCF942F78
:105000009170B9CF90911A0380911B03981309C036
:105010000E94EE2410928603109285030E94D80D00
:1050200031CE0E9435252ECE90911B0380911A031C
:10503000981729F00E9435255110F8CE23CE0E94F2
:10504000EE2410928603109285030E94D80DF4CFAF
:10505000A6E0B0E0EEE2F8E20C94F8310E94E01C29
:105060008C0180916502909166028017910779F01A
:1050700019821A820E94E01CBC0149815A8180E099
:1050800090E00E94DA25109366020093650226964E
:10509000E4E00C941432ABE1B0E0E1E5F8E20C940A
:1050A000F3311A821982FE01339688E0DF011D92E6
:1050B0008A95E9F700E611E0BB24B394EE24E3946B
:1050C000F12C9BE6C92E91E0D92EF80181918F0138
:1050D0008F3F09F449C0F894E82FE295EF70F0E0B3
:1050E00021A18F70A70102C0440F551F8A95E2F7D6
:1050F000CA01922F982B91A392A18095892382A314
:10510000789400C066E671E0DE0111964B2D409563
:10511000FB013191BF012D913F3F09F497C0832FCF
:1051200082958F70805E90E0FC01808190E03F70FE
:1051300002C0959587953A95E2F78170811186C0F6
:10514000822F8B299D0121503109F9018083C616D8
:10515000D706F1F6F801319780818F3F11F00E9458
:10516000B30DF0EAFA95F1F7BB0C21E00636120711
:1051700009F0ABCF4AE050E0BE016F5F7F4F8EE099
:1051800092E00E949A320091190210E0085D1D4FD2
:10519000892B09F45EC08AE0FE013196AEE0B2E0F0
:1051A00001900D928A95E1F781E08093DB010E94E6
:1051B000E01C9093DA018093D90180915F028823EB
:1051C00009F49FC01C861B86FE013D9683E0DF012B
:1051D0001D928A95E9F78091DE018A3008F05BC064
:1051E0007E01BBE0EB0EF11C4DE45AE1B701C801B2
:1051F0000E9402126701882309F471C046E759E151
:10520000B701C8010E940212882309F468C046E76A
:105210005AE1B701C8010E940212882309F45FC055
:105220001092DE018091180290E045E050E0B60156
:10523000885D9D4F0E949A3221E02093D801892BEE
:1052400009F040C06B96E9E00C940F32842F822362
:1052500079CF8091DB01882309F4AFCF8091D90108
:105260009091DA010E94270F059708F4A6CF45E038
:1052700050E06EE072E0C8010E949A32892B41F042
:1052800085E0EEE0F2E0D80101900D928A95E1F719
:105290001092DB0192CF8091D6019091D7010E94AC
:1052A000270F843F914008F09BCF8091D80188233D
:1052B00049F2FE013B9685E0DF011D928A95E9F7F0
:1052C0001092D801A0911802B0E0A85DBD4F85E012
:1052D000FE013B9601900D928A95E1F7B3CF809144
:1052E000DE018F3F39F40E94E01C9093D701809338
:1052F000D601DBCF8F5F8093DE018A3008F492CF36
:10530000F2CF85E0F801A1E4B2E001900D928A9518
:10531000E1F781E492E00E94211080934002C09066
:105320004602D0904702E0904802F09049028091F6
:10533000D2019091D301A091D401B091D501C816AA
:10534000D906EA06FB06B1F0C092D201D092D30191
:10535000E092D401F092D5010E94D70EC61AD70A66
:10536000E80AF90AC0926102D0926202E0926302F6
:10537000F092640280916002811164CF8091CE012D
:105380009091CF01A091D001B091D101BC01CD018C
:105390000E94360F688F798F8A8F9B8F672B682BBF
:1053A000692B09F44FCF0E94D70E6093CE01709302
:1053B000CF018093D0019093D1010E94091B9C01E1
:1053C00088E0EAE4F2E0DE011B9601900D928A95F6
:1053D000E1F789899A89009729F02817390711F090
:1053E0000E94481BFE01739685E0DF011D928A959D
:1053F000E9F74B895C896D897E898F890E94F21B50
:105400002C873D874E875F87688BCE010C960E9464
:1054100021108B8788E0FE013B96AAE4B2E05ACFC8
:10542000CDB7DEB7A4970FB6F894DEBF0FBECDBFE1
:1054300085B7806885BF85B7806885BF84B7877F5B
:1054400084BF0FB6F894A89580916000886180931E
:105450006000109260000FBE80E890E00FB6F894F4
:1054600080936100909361000FBE81EB9DE090936B
:10547000A5018093A4010E9402100E94DE10809179
:10548000E20084608093E200789480913202882365
:1054900099F08091E9001091EC001795112717956C
:1054A0008F70182B1092E9008091E80083FD0E9414
:1054B000B6161F701093E90082E084BD93E095BD9D
:1054C0009AEF97BD80936E00109261021092620273
:1054D00010926302109264020E94A213811102C012
:1054E0000E94CA128091D80080618093D8002AE17E
:1054F0002A95F1F700C08091D90080FDECC00E9490
:1055000002101092320210925F0281E080936002DA
:1055100080930001809100018091000190E0811151
:1055200001C095E09093190285E0891B80931802D1
:1055300000E611E066E6E62E61E0F62ED8018D91D8
:105540008D018F3F11F00E94B30DE016F106B1F707
:1055500006E611E05BE6E52E51E0F52EF8018191BB
:105560008F018F3F11F00E94B30DE016F106B1F7E5
:105570008AE0E8E2F2E0DF01282F1D922A95E9F7A0
:10558000EEE0F2E0DF011D928A95E9F78FE090E00E
:105590000E944A326F7360938A0380E090E00E9419
:1055A0005032863E9E4F21F40E94A21381116CC09E
:1055B00066EE7EEF80E090E00E94843260E082E060
:1055C00090E00E94663281E08093870361E083E08F
:1055D00090E00E94663260E074E184E090E00E9416
:1055E000843260E086E090E00E9466326FEF87E0F0
:1055F00090E00E94663240E050E0BA0188E090E01E
:105600000E94783260E084E290E00E94663260E0BE
:1056100087E190E00E94663260E08CE090E00E94BA
:10562000663260E08DE090E00E94663219821A8254
:105630001B821C821D821E821F82188648E050E059
:1056400068E170E0CE0101960E94563240E050E0E1
:10565000BA0180E290E00E94783280E00E94AC12B1
:105660000E94CA1210928A0340E050E0BA018FE013
:1056700090E00E9478320E943A1040E050E0BA0177
:1056800083E190E00E94783282E090E00E94423212
:1056900080931C0284E090E00E94503290930303B8
:1056A000809302030E944B28EFEFF6E721E0E150E0
:1056B000F0402040E1F700C000000E944B2880919C
:1056C000280280FF12C06FEF7FEF80E090E00E9421
:1056D00084320E94741181E080935F021092600214
:1056E000109200010E94802F15CF83E090E00E946D
:1056F00042320E94190B80918803882309F483C0E9
:1057000083FB882780F990918A0380FB97F9909317
:105710008A030E943A1080915F02811102C00E94A8
:10572000832F80916002811102C00E945A1B0E9447
:105730003A1081E091E0909388028093870228E1FB
:10574000622E712C32E3E32E32E0F32E47E2C42EB8
:1057500042E0D42E80913202853049F480913202A9
:10576000853009F452C00E947E160E94190E0E94D4
:105770004B280DE112E098E2A92E92E0B92ED50156
:10578000F80191918D91CE16DF0609F48EC098171D
:10579000C1F320905F02912CD5018D905D01F8013D
:1057A00031908F01381441F13824512C4424439412
:1057B000832D84218823C1F02220B1F059829A825E
:1057C0000E94E01C9C838B83F1E0FD8391E0882D97
:1057D0008421811101C090E09E8349815A816B81AF
:1057E0007C818D810E94DA255394440C26E052126C
:1057F000DFCFF8013197808293948AE09812CCCF62
:105800000E94F40E56C080E07ECF80913202843038
:1058100021F10E94261410921A0280E40FB6F89427
:10582000A895609260000FBE8093600083B7817F6F
:10583000846083BF83B7816083BF7894889583B782
:105840008E7F83BF0FB6F894A89580916000886121
:1058500080936000109260000FBE80911B0288232D
:1058600009F47CCF0E944B28E8E2F2E0819181119B
:1058700004C0EE16FF06D1F771CF80E189BD82E149
:1058800089BD09B400FEFDCF8091D8008F7D809343
:10589000D8008091E00082608093E0008091E00079
:1058A00081FDFCCF0E947E1659CF981372CF0E94C3
:1058B000282880915F02882319F180913C01882378
:1058C000F9F080918503909186030097C9F00E94BA
:1058D000270F20911803309119032817390780F4F6
:1058E00090911B0380911A03981771F10E9435253E
:1058F00010921903109218031092860310928503D8
:105900000E94261481110E94F40E0E94190E90919B
:105910002702891721F0809327020E94D70E8091D9
:105920003202843009F016CF8093E9008091E800BC
:1059300082FF10CF8091E80085FD0FC08091E800C4
:105940008B778093E80006CF0E94EE2410928603A6
:10595000109285030E94D80DD3CF0E94D10F8823C7
:1059600071F08091E8008B778093E800E981E15045
:10597000E33190F5F0E0EF5FFC4C0C94353280E2BF
:10598000A82EB12C8E010F5F1F4F8091E80085FD7E
:105990000AC08091E8008B778093E8000E94D10FC5
:1059A000882399F3DECF8091F100D8018C93B1E088
:1059B000AB1AB108A114B104A1F20F5F1F4FE5CFDC
:1059C0001A828CE08B831AC08A81833049F138F4C3
:1059D000813061F08230D9F08FEF89830FC084303D
:1059E000D9F71B821C821D821E8208C00E94D70E1E
:1059F0000E943B326B837C838D839E8340E250E028
:105A0000BE016F5F7F4F83E00E949811A3CE88E2B2
:105A100090E00E9442321B821C821D828E83EECF58
:105A20008B8190E0DE0114968A3091053CF7FC01F1
:105A3000FF27E85DFD4F20812D930196F5CF8A81E8
:105A4000823019F08530D1F2C7CF8B819C81AD8136
:105A5000BE8189A39AA3ABA3BCA3BC01CD010E94C4
:105A60003B3288E290E00E946632C8CF4C816B8165
:105A70008A810E94DA129827892798279E838D832E
:105A8000BDCF2D813E813227232732274C816B8168
:105A90008A810E943C12B2CF0E946312AFCF80E194
:105AA0008A83ACCF81E08A8387EF8CCF0A811B8108
:105AB0001027012710278C814801880E911C5E0158
:105AC00095E0A90EB11C0815190509F497CF80E0DF
:105AD000073FA1E01A0728F4C801875F9D4F0E9485
