:100000000C9455090C948D090C948D090C94221EA6
:100010000C948D090C948D090C948D090C948D0908
:100020000C948D090C948D090C945D1C0C94351D59
:100030000C94C2170C948D090C948D090C948D09A5
:100040000C948D090C948D090C948D090C948D09D8
:100050000C948D090C94391C0C948D090C948D0909
:100060000C948D090C948D090C948D090C948D09B8
:100070000C948D090C948D090C948D090C948D09A8
:100080000C948D090C948D090C948D090C948D0998
:100090000C948D090C948D090C948D090C948D0988
:1000A0000C948D090C948D090C948D090501090699
:1000B000A1018506050719E029E715002501950826
:1000C000750181020507190029EF1500250195F03A
:1000D000750181020508190129059505750191022F
:1000E000950175039101C005010902A1010901A152
:1000F00000050919012908150025019508750181D8
:10010000020501093009311581257F9502750881A5
:100110000609381581257F950175088106050C0AA9
:1001200038021581257F950175088106C0C005013B
:100130000906A101050719E029E715002501950821
:10014000750181029501750881010507190029FFD4
:10015000150026FF0095067508810005081901297C
:10016000051500250195057501910295017503910D
:1001700001C009025400030100A0FA0904000001B3
:10018000030101000921110100012244000705813A
:100190000308000109040100010301020009211103
:1001A0000100012247000705820310000109040233
:1001B000000103000000092111010001223B00079A
:1001C0000583032000011201000200000008F8A8C6
:1001D000331800020102000130034300680061008F
:1001E000720079006200640069007300200028003A
:1001F0003400780036002900200045006C006900BA
:10020000740065002D0043000000240342006100DB
:100210007300740061007200640020004B006500F0
:10022000790062006F0061007200640073000000DA
:100230000403090401048E966E773EFE7E5F1DB8AE
:10024000F2664EFF5D19B0C20469542AD62EBFDD96
:1002500019B0C3E529B1E023A5A9B1C10082674C5B
:100260001A978D795120C7068E7C7C7A764FFD597E
:1002700030E2460E9EBEDF1D9991A0A5A1A9D02215
:10028000C6EF5C1B958990A2A7CCFB5528B3E44A26
:10029000F76C3BF46A562EDE1F9DB8D3058892A6F4
:1002A000CE1EBEDF1D99B0E246EF5C07115D980BD4
:1002B0009D9497EE4E45336B44C729562730C6A709
:1002C000D5F256DFB43862CBA0B6E30F840624051E
:1002D000656F7689B577412782666582CCD5E62041
:1002E000D52717C5F803237C5F64A51DC1D636CB7F
:1002F0004CD4DB66D78BB1997E6F4C364006D6EB7B
:10030000D7A2E4F495515A5496D55344D78CE0B90A
:100310004068D218E9DD9A239248EE7F43AFEA772E
:1003200038848C0A72AF69F8DDF12483A3F84ABFE0
:10033000F59413DBBBD8B4B3A0FB45506030591221
:100340003171A2D313E7FAE7CE0F63150B6B94BBA1
:10035000378326059DFB4692FC0A15D10D7392D674
:100360008C1B8CB8558ACEBDFE8EFCED0912839194
:1003700082513123FBB40C76AD7CD9B44BB26714F7
:10038000099C7F0C18BA3BD68E142AE41B529F2B73
:100390007DE1FB6A3302FAAC5AF23E887EAED1F3BD
:1003A00078E805D1E3DC21F6E19ABD170ED9469B2A
:1003B0008803EAF666BE0E1B5049964097F1F1E4B9
:1003C00080A66EE87734BF294044C2FF4E98D39C84
:1003D000A3322B76510409E7A9D1A632B12353E207
:1003E00047ABD6F5695C3E5FFAAE4520E5D244FFE7
:1003F00039326DFD27575CFDF0DEC1B599E5F51C7E
:10040000770175C56D5892F2B247000126967A3091
:10041000FFB7F0EF77C18A5DDCC0D129301E773895
:100420007A94F1B87A7EEFA4D1AC314AF25D643DA2
:10043000B2E2F00899FC70EE24A77EEE1E20697DE2
:1004400044BF8742DF883B0CDA42C904F94550FCBF
:10045000838F116A72BC9995F0AC3DA73BCD1CE22D
:10046000887937115F3989950A16847AF68AA42823
:10047000E4ED83803BB123A50310F466EABB0C0FC7
:10048000C5EC6C69C5D324ABD42AB799887608A08B
:10049000A8957CD8386DCD5902514BF1B52B50E35E
:1004A000B6BDD072CF9EFD6EBB44C8248A77188A31
:1004B0001306EF977DFA81F031E6FA77ED310631D8
:1004C0005B548A9F3068DBE240F84E73FAAB748B62
:1004D000105813DCD2E678D1322E8A9F2C58064869
:1004E00027C5A95E8147894621910370A43E889C57
:1004F000DA330ACEBC8B8ECF9FD3718043CF6BA9EA
:100500005183763082C56A853911501A82DC1E1CEF
:10051000D57DA9719933471997B35AB1DFEDA4F28C
:10052000E62684A2289A9EDFA66AF4D6FC2E5B9D5E
:100530001A2A2768FBC183214B90E036DD5B3142EC
:1005400055A013F7D089537199570929C5F321F89C
:10055000372F40F3D4AF16083602FC77C58B0490D2
:1005600056B9C9679A99E800D386FF972D08E9B76D
:10057000B391BCDF45C6ED0F8C4C1EE65B6E383088
:10058000E4AAE395DEB9E49AF5B2559A879BF66A38
:10059000B2F2779A31F47A31D11D04C07C32A29E36
:1005A0009AF562F8278DBF51FFD3DF64373F2A6F7A
:1005B000763A7D77069E777F5EEB3251F916669A22
:1005C00009F3B008A470964630FFDA4FE91BED8DB1
:1005D000F8741F3192B3731736DB9130D688556BA0
:1005E0003477877AE7EE06C61C8C190C4846235EE2
:1005F0009C075CBFB47ED64F749CE2C5508BC58B04
:10060000159060625729D01343A18088910044C798
:100610004D1986CC2F2A755AFCEB972A70E378D8AF
:1006200091B04F9907A395EA2421D5DE5120932755
:100630000A3073A8FF8A97E9A76A8E0DE8F0DFEC0D
:10064000EAB46C1D392A622D3D5A8B65F890052E4F
:100650007E912C78EF8E7AC12FAC78EEAF284506CC
:100660004C26AF3BA2DBA39306B53CA5D8EE8FAFDB
:1006700025CC3F856848A962CC978F7F2AEAE01590
:100680000AAD6207BD45F841D836CB4CDB6EE63A81
:10069000E7DA15E9291E1210A0142C0E3DF4BF391B
:1006A0004192750B257BA3CE399C1564C8FA3DEFAA
:1006B0007327FE262ECEDA6EFD718EDDFE76EEDC21
:1006C000125C02C53A4E4E4FBFCA4015C76E8D41EF
:1006D000F110E04F7E977F1CAE478E6BB12531B095
:1006E00073C71B9779F980D366223007741EE4D054
:1006F0008021D6EE6B6C4FBFF5B7D909872FA914AF
:10070000BE27D9725001D41373A6A751027525E1F3
:10071000B345347DA88EEBF31649CB4F8CA1B93687
:100720008539755D0800AEEBF6EAD7133A215A5FBA
:100730003084522695C914F257556BB110C2E1BDF1
:100740003B51C0B7554C711226C70DF951A4380260
:10075000057FB8F1724BBF718914F37738D97124D2
:10076000F30011A1D8D46927083735C9119D901C11
:100770000EE71CFF2D1EE892E11810957CE080F436
:10078000964321F975216438DD9F1E9516DA561DB2
:100790004F9A53B2E2E418CB6B1A65EB56C63BE5B1
:1007A000FED8263F3A84597266A2F375FFFB60B308
:1007B00022AD3F2D6BF9EBEA057CD88F6D2C989E0E
:1007C0002B93F15E46F08749297368D77FF9F0E5EE
:1007D0007DDB1D7519F3C4589B1788A892E0BEBD38
:1007E0008B1D8D9F5676ADAF29E2D9D552F6B55601
:1007F00035573AC8E156431994D3049B6D35D80B4D
:100800005F4D198EECFA64910A72202BBC1A4AFED5
:100810008BFDBBED1B23EAAD7282A1299971BDF05E
:1008200095C103DD7BC2B23C2854D368A472C8666C
:1008300096E0D1D87FF8D1262BF7ADBA55CA15B9B5
:1008400032C3E588978E5CFB92258BBFA245557A13
:10085000A76F8B575BCF0ECB1DFB208277A88CCC6C
:1008600016CE1DFADECC0B62FECCE1B7F0C381647C
:100870007340A0C24D8911753355338DE84AFDEAA6
:100880006E300BD7312CDE47E3BFF85542E27F597B
:10089000E517EF99346991B1238E20872DA8FED5F5
:1008A0008AF3843AF037E4090054EE674993E4810F
:1008B00070E3904DEFFE41B7997BC183BA62126F2E
:1008C0007DDE6BAFDA16F95551EEA60C2B02A3FDB7
:1008D0008DFB3017E46FDF3671C4CA872548B047F7
:1008E000ECEAB4BFA54D9B9F0293C4E3E4E8422D1C
:1008F0006881150AEB845BD6A874FB7D1DCB2CDACE
:10090000462A7662CEBC5C9E8BE7CFBE78F57CEB48
:10091000B33A9CAA6FCC72D159F21123D63F48D179
:10092000B7CEB0BFCBEA80DE57D45E972F75D150DB
:100930008E802C6679BF724BBD8A816CD3E101DC5D
:10094000D21526C536DA2C1AC02794EDB79B850B35
:100950005E8097C5EC4FEC885D50073547DC0B3B5C
:100960003DDD60AFA85D813824255D5C15D1DEB327
:10097000ABEC0569EF83ED5754B864641116326926
:10098000DA9F2D7F36BB445A34E87FBF03EB007FEC
:1009900059682279CF736C2C29A7A15F38A11DF06B
:1009A0002053E01A6314587110AA080C3E161A60FE
:1009B00022827FBAA443A0D0AC1BD56B64B514933C
:1009C000319E5350D05766EE5A4FFB032A69587632
:1009D000F183F74EBA8C4206605D6DCE6088AEA49E
:1009E000C3F103A54B98A1FF67E1ACA2B862D76F32
:1009F000A031B4D277AF211006C69AFF1D09170E99
:100A00005FF1AA54344B458A8763A6DCF92430672A
:100A1000C6B2D6613369EE50615728E77EEEEC3AF4
:100A20005A734EA88DE418EAEC4164C8E2E866B651
:100A30002DB6FB6A6C16B3DD4643B973006A71EDDF
:100A40004E9D251AC33C4A95159935811402D698B6
:100A50009BECD8233B8429AF0C9983A69A344FFA98
:100A6000E8D03C4BD0FBB668B89E8FCDF7602D7AAE
:100A700022E57DAB651B95A7A87FB677477B5F8B8B
:100A80001272D0D491EFDE19503CA78BC4A9B323C6
:100A9000CB76E681F0C1048FA3B8545B97AC19FF05
:100AA0003F55272FE01D429B57FC4B4E0FCE98A978
:100AB000435703BDE7C894DF6E367332B4EF2E851B
:100AC0007A6EFC6C188275359007F3E49F3EDC6803
:100AD000F3B5F31980920699A2E86FFF2E7FAE421C
:100AE000A45FFBD40E812BC304FF2BB3744E365B83
:100AF0009C1500C6472BE88B3DF19C039A587F9BC1
:100B00009CBF854979352E567B411439478326AAE7
:100B1000078998111B86E7737AD87D786153E97944
:100B2000F5368D449284F91350583BA46A366549D2
:100B30008E3C0EF16FD284C47E8E3F39AE7C84F140
:100B400063378E3CCC3E448145F14BB9ED6B365D4D
:100B5000BB20601A0FA3AA55773AA9AE374DBAB891
:100B6000866BBC0850F6CCA4BD1D4072A586FAE287
:100B700010AE3D584B97F34374A99EEB21B701A4E7
:100B8000869397EE2F4F3B86A1416F412690785C6C
:100B90007F30384B3FAAECED5C6F0EAD4387FD9381
:100BA00035E601EF412690999EFB195BADD2918A03
:100BB000E046AF65FA4F84C1A12DCF458BD3855058
:100BC000557CF96788D44EE9D76B6154A1A4A6A2DD
:100BD000C2BF309C409F5FD7692B24825ED9D6A7C5
:100BE00012541AF7559F7650A99584E66B6DB59609
:100BF00054D6CDB3A19B46A7944DC494B498E3E1D9
:100C0000E234D533160754CDB77753DB4F4D469DAD
:100C1000E9D49C8A36B6B838266C0EFF9C1B438BF1
:100C200080CCB93DDAC7F18AF26DB8D7742F7E1E39
:100C3000B7D34AB4ACFC79486CBC96B69446572DF1
:100C4000B0A3FC1EB95260852D41D043011E1CD5B6
:100C50007DFCF3960DC7CB2A299A93DD882D375D4D
:100C6000AAFB4968A09C50867F685657F9791839C5
:100C7000D4E001843361CAA5D2D6E4C98A4A2344A8
:100C80004EBCF0DC24A1A0C4E2073C10C4B5254B47
:100C90006563F480E7CF61B1718221872CF5910003
:100CA000320CECA9B59A7485E3368F764F9C6DCEE5
:100CB000BCAD0A4BED7604CBC3B9339E0193966964
:100CC0007DC5A245799B045C8409ED8843C7AB933D
:100CD0001426A140B5CE4EBF2A42853E2C3B54E897
:100CE000121F0E9759B22789FAF2DF8E6859DC0677
:100CF000BCB6850D0622ECB1CBE504E63DB3B041B0
:100D000073083F3C588663EB50EE1D2C3774A9D313
:100D100018A3476E9354AD0A5DB82A555D78F6EE78
:100D2000BE8E3C7669B940C234EC2AB9ED7E20E42F
:100D30008D0038C7E68F44A886CEEB2AE990F14CA7
:100D4000DF32FB731B6D921E95FEB4DB65DF4D2316
:100D5000548948BF4A2E70D6D762B43329B13A338A
:100D60004C236DA676A5216348E6905DED90950B2A
:100D70007A84BEB80D5E630C62264C145AB3AC2361
:100D8000A474A76F333005600142A028B7EE19386C
:100D9000F164808243E141271F1F90547AD5232EAE
:100DA000D13DCB28BA587FDC7C9124E92851836E51
:100DB000C5562142EDA05622A140806BA8F794CAE7
:100DC000136B0C39D9FDE9F36FA69EFC708AB3BC96
:100DD000593C1E1D6CF97CAFF9887195EB5700BD2D
:100DE0009F8C4FE12483C522EAFDD30CE217187CC7
:100DF0006A4CDE77B4539B4C81CD2360AA0E2573D9
:100E00009C02793230DF74DF7519F4A5145CF77A2F
:100E1000A8A591847C6003063BCD50B6279CFEB10B
:100E2000DDCCD3B05924B2CAE21C81229D078F8E3B
:100E3000B9BE4EFAFC3965BABF9D12375E977EF394
:100E400089F55DF5E3098C62B5209D0C538A681B1A
:100E5000D28F75175DD4E5DA756219146A262DEB09
:100E6000F8AF37F06CA455B1BCE233C09ACAB011E8
:100E7000494F689B3B6B3CCC13F6C785616842AE1B
:100E8000BBDDCD4516291DEADBC803943CEE4F823D
:100E900011C3EC28BD970599DED7BB5E221FD4EBAA
:100EA00064D992D985B76A056AE42441F1CDF0D8B6
:100EB0003FF89E0ECD0B7A706B5A750A6A3388EC38
:100EC00017750870102F24CFC4E942006194CA1F1F
:100ED0003A7606FAD24881F077600345D961F4A4E6
:100EE0006F3DD930C3046B542AB7EC3BF44BF56823
:100EF0005226CEFF5D1991A0A3A5A9B1E023C40A93
:100F0000774DF95120A3A5A9B1C10082868E7F5DDE
:100F10001991A0A3C4EB540B756852078C9A978D56
:100F200079706246EF5C1B95897141E121A1A1A115
:100F3000C002674C1AB6CFFD785324ABB5C9F16037
:100F400023A5C812876D5813858892876D5832C7BC
:100F50000C9A97ACDA36EE5E3EDF1DB8F2662FBD16
:100F6000F87247ED5813858892878C7B550990A2BB
:100F7000C6EF3DF85324ABD42AB7EC5A36EE5E3EAA
:100F8000DF3CFA764FFD5930E246EF3DF8530569F4
:100F900031C10082868E7F5D19B0E227CCFB744B95
:100FA000148B948B756833C50892878C9AB6CF1CC6
:100FB000BAD70D98B2E62FDC1B9589716023C40A5D
:100FC000968F9CBAF66E3FFC5B15A8D226AFBDF893
:100FD00072662FDC1BB4CB148B94AAB7CDF95101E8
:100FE0008082866F3DD930E227CCFB744B14AAB7C0
:100FF000CDF97043046B35C9F16023A5C8F34508EA
:1010000092876D5832E62FBDF872664E1EBEFE7E88
:101010007E7E5F1D9991A0A3C40A774D1893A4AB5F
:10102000D40B754910A2C6EF3DF85324ABB5E83395
:10103000E44A16AEDE1FBCDB15A8B3C5087345E94C
:1010400031C1E121A1A1A1C002866F5C3AD70D9800
:1010500093A4CA16AEDE1F9D99B0E246EF3DF8722A
:10106000470C9AB6CFFD5911A0A3A5C8F345089225
:10107000876D39F043048A96AEDE3EDF1D9991A05C
:10108000C2066F3DF872470C9A978D9893858873C6
:1010900045E931E023A5A9D003848A96AEDE1FBCC2
:1010A000DB15A8D226CEFF5D1991818082672DD8ED
:1010B00013A4ABD40B94AAB7CDF95120A3A5C8F3C0
:1010C00045E95022C6EF5C3AD70D98938588736442
:1010D0004AF74DF95120A3C40A96AEDE3EFE7E7E4D
:1010E0007E5F3CFA764FFD7872662FBDD930C3E53E
:1010F0004812878C7B5528D2078C9A97ACDA178DCB
:10110000795120A3C4EB540B948B94AAD62EBFFC28
:101110005B15A8D226AFDC1BB4EA37EC3BF46A3788
:10112000CD1893856931C1E140E325C812878C9AB7
:10113000B6CFFD5911A0C2068E7F5D38F2470C7BF9
:10114000746A37EC5A36EE3FFC7A764F1C9B9589D1
:101150007141006344EB542AD60F9CBAD70D989383
:10116000856931C10082868E9EBEDF3CFA572CDA3B
:1011700036EE3FFC5B158971410082868E7F5D38BB
:10118000F247ED5813A4CAF74DF95101806344EBBF
:10119000542AD62EBFDD1991A0A3A5A9B1E042061D
:1011A0008E7F5D1991A0A3C40A968F7D7872470C3B
:1011B0007B746A562EDE1FBCFA570D7951016121EE
:1011C000A1C0E325A9B1C1E14002674C1A978D98EF
:1011D00093A4ABD42AD60F9C9BB4CB14AAB7CDF959
:1011E0005120A3C4EB35C9F16042068E7F7C7A762C
:1011F0006E3FFC7A766E5E3EFE7E5F3CDB1589714B
:1012000041E121C0E344EB542AB7CDF9706227AD28
:10121000D832C70C7B744B14AAB7EC3BD528D20745
:101220006D39D120C2E74C1A978D98B2C70C592856
:10123000F39B29001E001F002000210022002B002C
:1012400014001A00080015001700E1000400160041
:10125000070009000A00E0001D001B00060019003D
:101260000500000000002A00E3002C00E2002D0031
:10127000270026002500240023003100130012005F
:101280000C0018001C00340033000F000E000D008D
:101290000B00E2003800370036001000110000009B
:1012A00000000000280000004C0011241FBECFEFFA
:1012B000DAE0DEBFCDBF04B603FE18C080914E0257
:1012C00090914F02A0915002B09151028730904B03
:1012D000A740B04B59F410924E0210924F02109258
:1012E000500210925102E0E0F8E3099511E0A0E00D
:1012F000B1E0EEE1F2E402C005900D92AA35B1072B
:10130000D9F722E0AAE5B1E001C01D92AE34B207E0
:10131000E1F70E94FA190C9403210C9400009C013F
:10132000892F99270097E9F09C0188E0A90174E0D2
:10133000569547957A95E1F74115510511F08C5F67
:101340009A01A9015695479556954795411551051E
:1013500011F08E5F9A0136952795232B09F08F5F48
:10136000089580E0E3CF7A3090F4663080F4811104
:1013700011C0E62FF0E086E0789FE00DF11D11240A
:10138000EE0FFF1FEE5CFD4E85919491089580E075
:1013900090E0089581E0FCCF803E9105D1F1C8F442
:1013A0008133910509F47FC048F48932910509F42D
:1013B0006FC08A32910509F47DC008958933910583
:1013C000E1F082389105C9F08533910509F45BC0DD
:1013D0000895843E9105D1F148F4823E910531F1A2
:1013E000833E910541F181EE90E00895863E91059E
:1013F000C1F1873E9105E1F10895209146022370E5
:10140000211165C02091470223FF14C089E290E0BA
:1014100008952091460220FD43C03091470230FFDD
:1014200009C024FF4EC080E090E00895209146025C
:1014300022FDF7CF08952091460222FD45C030914C
:10144000470230FD44C024FFF5CFEDCF2091470285
:1014500021FFF0CF8091460284FDE5CF87EE90E03A
:1014600008952091460223FFE5CF24FDDCCFF6CF7F
:101470002091460223FD2EC03091470231FFE3CF79
:1014800084EE90E008952091460225FFD3CFBECF91
:101490002091460225FD21C02091470223FFCACF9B
:1014A00089E390E008952091460226FFC3CF8AE2A7
:1014B00090E008952091460226FFBCCF81E390E0A2
:1014C000089583EE90E0089582EE90E0089580EE16
:1014D00090E0089586EE90E0089585E390E0AACF2D
:1014E0009091460292FF10C041E0282F24712430D1
:1014F00009F040E031E0282F2871283009F030E071
:10150000431711F02CE0822793FF10C041E0282FF1
:101510002471243109F040E031E0282F287128316E
:1015200009F030E0431711F02CE082273091470298
:1015300030FF10C051E0282F2171213009F050E018
:1015400041E0282F2871283009F040E0541711F0AD
:1015500029E0822731FF10C041E0282F217121317D
:1015600009F040E031E0282F2871283109F030E0FF
:10157000431711F029E0822794FD877E089580E0CB
:101580000895F894E82FE295EF70F0E041A18F7094
:1015900021E030E0B90102C0660F771F8A95E2F7BB
:1015A000CB01962F9095942391A392A1892B82A38E
:1015B0007894089520911002211103C00E945116C1
:1015C00008958093E8019093E901089580910F02B6
:1015D000882359F0E0913702F0913802309729F0D2
:1015E0000190F081E02D0995089580E00895909193
:1015F0003B019923E1F09091460297FF18C0E82F34
:10160000E695E695E695803FF0F4F0E0EC59FE4F64
:10161000877021E030E0A90102C0440F551F8A9570
:10162000E2F7CA0180959281892382830895EEE5CD
:10163000F1E09191891303C0DF0111971C9251E0F1
:10164000E436F507B1F70895A4E0B0E0EAE2FBE084
:101650000C9454208FB7F8942091A8013091A901DF
:101660004091AA015091AB0129833A834B835C835B
:101670008FBF69817A818B819C812496E2E00C94F2
:101680007020A4E0B0E0E7E4FBE00C9454208091EB
:101690000F02882371F00E94240B69837A838B8365
:1016A0009C8369817A818B819C812496E2E00C94F1
:1016B00070200E94240B69837A838B839C838091A2
:1016C000110290911202A0911302B091140229818B
:1016D0003A814B815C81280F391F4A1F5B1F298388
:1016E0003A834B835C83DDCFA4E0B0E0EAE7FBE024
:1016F0000C945220462F572FBC012FB7F89480919D
:10170000A8019091A901A091AA01B091AB012FBFAE
:101710008C019D01041B150B260B370BC901B80169
:101720002496E4E00C946E208091A701089508951A
:10173000FC019B0180919D0190919E018617970766
:1017400040F0672B29F48091E8008E778093E800C1
:10175000C90140E0009741F4411106C08091E800C2
:1017600082FF2FC080E008952091CC012223A9F1AF
:101770002530A9F12091E80023FD2DC02091E8003B
:1017800022FDECCF2091E80020FFE4CF3091F30060
:101790002091F200009719F02830310558F041E00F
:1017A0002830310509F040E02091E8002E772093A1
:1017B000E800D0CF41914093F10001972F5F3F4F58
:1017C000E9CF8091CC01882341F0853041F08091B0
:1017D000E80083FFC3CF81E0089582E0089583E0AD
:1017E00008958091970187FF13C08091E80082FFE0
:1017F00006C08091E8008B778093E80004C0809158
:10180000CC018111F2CF08958091CC018823D9F3C6
:101810008091E80080FFF8CF8091E8008E77ECCFD0
:101820002091E4003091E50095E6A9018091EC005B
:101830008170882331F08091E80080FF06C080E04D
:1018400008952091E80022FD1BC08091CC018823DF
:1018500091F0853091F08091EB0085FD10C02091D2
:10186000E4003091E5004217530701F391509111C4
:10187000DCCF84E0089582E0089583E0089581E05C
:101880000895E8EDF0E080818E7F80831092E20081
:101890001092DA001092E100A0EEB0E08C9181602D
:1018A0008C9380818F77808319BCA7EDB0E08C91F9
:1018B0008E7F8C9380818F7E808310929601089515
:1018C000FC01AC014B5F5F4F8FEF91E321918227C9
:1018D00028E030E087FF0BC0880F892721503109AD
:1018E00021153105B9F7E417F50781F70895880F39
:1018F000F5CF8091C90186FF05C084E690E00E9483
:10190000DA0A089587FF09C08295837024E6829FD2
:10191000C001112488539F4FF2CF8F7028EC829F13
:10192000C001112480579E4FEACF982FE42FE27018
:101930009093E900891308C0762F242F50E0E1111D
:1019400011C091E0980FF4CF7091EC002091ED0060
:101950005091F00021FD06C09F5F973049F78093BA
:10196000E90008953091EB003E7F3093EB00309119
:10197000ED003D7F3093ED003091EB00316030930E
:10198000EB007093EC002093ED005093F000209159
:10199000EE0027FDE1CF0895A0E0B0E0E2EDFCE02D
:1019A0000C944E20C8EDD0E088818F7E8883E7EDCF
:1019B000F0E080818160808384E082BF81E0809359
:1019C000960188818E7F888302EE10E0F8011082F4
:1019D0001092DA0081EEC82ED12CF6011082888197
:1019E0008F77888388818068888388818F7D8883CA
:1019F00019BC1092CC01109295011092CB0110925B
:101A0000940190EEE92EF12CF70180818B7F808389
:101A100088818160888342E060E080E00E94950CCC
:101A2000F60180818E7F8083F801808181608083D0
:101A3000808188608083F70180818E7F80838881A8
:101A400080618883CDB7DEB7E8E00C946A2081E03E
:101A50008093E00080E28093D8001092C9008FE16B
:101A60009EE40197F1F700C0000087E090EBDC01F5
:101A700080934E0290934F02A0935002B093510274
:101A800088E19CE00FB6F894A895809360000FBEA3
:101A900090936000FFCF0F931F93CF93DF93EB01E1
:101AA0008A019091CC01943079F58093E9008FEF11
:101AB0009091E80095FD07C095ED9A95F1F700002B
:101AC00081508111F5CF8091E80085FF1DC00E94F3
:101AD000100C811114C08091E80085FD06C0809132
:101AE000E8008E778093E800F2CF88818093F10040
:101AF000015011090115110511F02196ECCF8091CB
:101B0000E8008E778093E800DF91CF911F910F91CD
:101B10000895CF93DF93D82FC92F48E050E0682F66
:101B2000792F81E00E944B0D88E0ED2FFC2FAFE96B
:101B3000B1E001900D928A95E1F7DF91CF91089580
:101B4000BC0140E250E083E00E944B0D0895BC01CF
:101B500045E050E082E00E944B0D0895A0E0B0E027
:101B6000E4EBFDE00C944C20F82EE92EB62EA72EC7
:101B70008A0180919201CC24C394D12C8A3018F42C
:101B80008AE0C82ED12CC1E0D0E06B2D7A2D8F2DAC
:101B90009E2DF8010995811116C02196CC16DD06FF
:101BA00094F0CC9FC001CD9F900D900D112420E0AA
:101BB00030E045E34A95F1F700002F5F3F4F2817CB
:101BC0003907B9F7E2CFCDB7DEB7EAE00C94682069
:101BD000909141028091B801981308C0809142020F
:101BE000882329F19091B901891709F1E091370211
:101BF000F09138023097A9F581E020914102E2E4AA
:101C0000F2E094E0DF011D929A95E9F795E0E1E4B6
:101C1000F2E0A8EBB1E001900D929A95E1F7811105
:101C200027C081E0211101C080E08170089580917A
:101C30004302882321F09091BA018913D7CF809174
:101C40004502882321F09091BC018913CFCF809168
:101C50004402882321F09091BB018913C7CF80E013
:101C6000CCCF0680F781E02D81E492E00995C4CFC6
:101C700081E0DBCF815D883090F44091410221E02A
:101C800030E0F90102C0EE0FFF1F8A95E2F7CF01A5
:101C9000662331F0842B809341020E94E80D089561
:101CA00080958423F8CFADE1B0E0E9E5FEE00C9447
:101CB000532080910F02811105C080E06D96E3E012
:101CC0000C946F208091B4019091B501A091B60160
:101CD000B091B701BC01CD010E94740B6A8F7B8F5C
:101CE0008C8F9D8F672B682B692B39F30E94240BF7
:101CF0006093B4017093B5018093B6019093B701DE
:101D0000809110028111E9C040914102509142023C
:101D10006091430270914402809145020E94FB163B
:101D20002093410230934202409343025093440275
:101D30006093450285E0E1E4F2E0DE011696019051
:101D40000D928A95E1F78091420281958F8395E00B
:101D5000FE013696DE01509601900D929A95E1F7BC
:101D600095E0FE0170969E012F5F3F4FD9010190D3
:101D70000D929A95E1F795E0F901A1E4B2E00190A6
:101D80000D929A95E1F795E0E1E4F2E0DE015596D7
:101D900001900D929A95E1F74091430260914402BF
:101DA0005091450290910F02122F732F992309F43D
:101DB0006BC09091C90196FF3FC02091B101309155
:101DC000B201280F311D87FD3A953093B20120935F
:101DD000B1018091AF019091B001840F911D47FD39
:101DE0009A959093B0018093AF01F90137FF04C039
:101DF000EE27FF27E21BF30B37974CF051E012164A
:101E000013060CF05FEF1092B2011092B1019C0129
:101E100097FF04C022273327281B390B27303105B1
:101E20004CF061E0181619060CF06FEF1092B0013B
:101E30001092AF0140E080E08E8B4F8B688F598FFE
:101E400095E0FE017596DE011B9601900D929A9524
:101E5000E1F795E0FE013B96A12FB72F01900D927F
:101E60009A95E1F795E0E12FF72FDE0116960190A4
:101E70000D929A95E1F795E0FE013696DE015596B2
:101E800001900D929A95E1F78E8B4F8B688F598F49
:101E900085E0FE017596DE01169601900D928A95F9
:101EA000E1F785E0FE013696DE011B9601900D926A
:101EB0008A95E1F785E0FE013B96A1E4B2E001904E
:101EC0000D928A95E1F70E94E80D811110C0809172
:101ED000B30181701092B301F1CE85E0E3EEF1E041
:101EE000A1E4B2E001900D928A95E1F723CF81E061
:101EF00090E0EFCF8091480290914B02892B909116
:101F00003B01992349F19091460297FF25C08093A8
:101F1000650140E250E067E172E084E691E00E94F2
:101F2000ED20892BC1F080E2E4E6F1E0A7E1B2E028
:101F300001900D928A95E1F7E0913702F091380215
:101F4000309749F086E0809364010480F581E02DAC
:101F500084E691E00995089580935C0148E050E0A3
:101F600069E372E08CE591E00E94ED20892B99F302
:101F700088E0ECE5F1E0A9E3B2E001900D928A95EA
:101F8000E1F7E0913702F0913802309721F30280B7
:101F9000F381E02D8CE591E0DDCF80913B0188233A
:101FA00081F08091460287FF0CC0E6E6F1E08EE109
:101FB000DF011D928A95E9F7109248020E947A0F7C
:101FC0000895EEE5F1E086E0F3CF10924B020E9417
:101FD000CD0F2FEF84E39CE0215080409040E1F74B
:101FE00000C0000088E19CE00FB6F894A8958093AB
:101FF00060000FBE90936000FFCFAF92BF92DF9260
:10200000EF92FF920F931F93CF93DF93CDB7DEB77D
:102010002C970FB6F894DEBF0FBECDBF4F83588705
:1020200069877A878B87E92E9C87D92E9111109228
:10203000480286E0FE013796DE01119601900D926E
:102040008A95E1F78B85882309F48BC0A980BA8033
:102050008091490290914A020E948F09182FB50180
:102060000E94B30969817A81812F0E94B3099C0182
:10207000DD2011F121308CE73807E1F023309CE7B7
:10208000390791F021153C47B9F410924B020E9498
:10209000CD0F9FEF24E38CE0915020408040E1F78A
:1020A00000C000000E94270D6FEF7FEF80E090E0FE
:1020B0000E94D7200E94E50F7A816981812F0E94BA
:1020C000B3090E94CC098C01011590E21907D8F4DC
:1020D0000F3F110511F008F054C0003E110570F4D7
:1020E0000D3C110528F50130110519F1C8010497BF
:1020F000813A9105F0F000E010E01BC0C801805E5D
:1021000091090797F7CFC801011520E5120708F4D8
:102110004AC0805A9245809770F7802F8F710E9435
:10212000700A082F10E0102F002700271F7101C030
:102130001065812F8F70912F92959F70F02E103225
:10214000B8F16E2D802F953009F4A7C009811A814E
:102150008091490290914A020E948F09B8010E9421
:10216000B3092C960FB6F894DEBF0FBECDBFDF913A
:10217000CF911F910F91FF90EF90DF90BF90AF90A4
:102180000895812F0E94700AF82EC80199270E9495
:10219000CC092F2D30E0322F2227890100271F7113
:1021A000082B192BC6CF99270E94CC098C01C1CFCF
:1021B000082F103110F00295007FDD2009F4AAC02D
:1021C000002309F457C080E28F0D8830A8F4809175
:1021D0004B02802B80934B020E947A0F2F2D277089
:1021E00081E090E001C0880F2A95EAF7F0904B0259
:1021F000F82AF0924B023BC080914B02802BFF20CB
:1022000009F4BAC080914802802B809348020E9452
:102210007A0F8CEF8F0D813AC8F580913B018111C7
:102220003FC0EEE5F1E084E691E021912F1509F43D
:1022300052C08E179F07C9F780913B01882309F48C
:1022400050C08091460287FF4CC0EF2DE695E69581
:10225000E695F0E0EC59FE4F2F2D277081E090E0DD
:1022600001C0880F2A95EAF7F280F82AF2820E94CC
:102270007A0F6CCFFF2009F469CF8CEF8F0D813A74
:1022800060F280E28F0D883008F4A8CF83E38F0DD1
:10229000833108F05BCF61E08F2D0E943A0E56CF5C
:1022A0008091460287FFBDCFEF2DE695E695E69536
:1022B000F0E0EC59FE4F828190E04F2D477021E015
:1022C00030E002C0220F331F4A95E2F782239323A6
:1022D000892B09F4B6CF8F2D0E94F70A0E947A0F3E
:1022E000ABCFAEE5B1E0EFEF80E09D919F1509F433
:1022F000BECFEF3F19F4911101C0E82F8F5F8630F8
:10230000A1F7EF3F09F4B3CF0E2E000CFF0BE45AF8
:10231000FE4FACCFFF2041F18CEF8F0D813A80F45E
:102320008F2D0E94F70A0E947A0F002309F40ECF26
:10233000802F80959091480289238093480297CFFF
:1023400080E28F0D8830D8F48F2D877021E030E047
:1023500001C0220F8A95EAF7209580914B028223D3
:1023600080934B020E947A0F002309F4EFCE802F56
:10237000809590914B02892380934B0278CF83E321
:102380008F0D833190F660E08F2D0E943A0ECDCFF5
:10239000AAE2B0E0EEECF1E10C94532087E991E081
:1023A000FC0101962091F100208321E08F399207F2
:1023B000B9F780919801893009F458C0C8F4823087
:1023C00009F4B5C0833009F484C0813081F1809173
:1023D000E80083FFE9C080919701909198019A30BD
:1023E00008F0E2C0E92FF0E0EB5FFE4D0C948F2087
:1023F0008A3009F48BC08B3051F78091970181327C
:1024000031F780919B0190919C01892B01F780917C
:10241000E800877F8093E8000E94F10B809199018A
:1024200080933B0110924B020E94CD0FD0CF809140
:102430009701813A61F68091E800877F8093E800F8
:1024400080919B0190919C01892B61F060E080E07C
:1024500090E070E00E94980B8091E8008B77809369
:10246000E800B5CF68E08FE991E0F3CF8091970164
:10247000813209F0ACCF80919B0190919C018D7FBE
:10248000892B09F0A4CF8091E800877F8093E80032
:102490008091E80082FF18C09091F3008091F200D3
:1024A000029731F48091F100813011F0863021F4EF
:1024B0008091F1008093A7018091E8008B77809351
:1024C000E8000E94F10B83CF8091CC018111E0CF15
:1024D0007ECF80919701813A09F079CF80919B015D
:1024E00090919C01892B09F072CF8091E800877F41
:1024F0008093E8008091E80080FFFCCF80913B0151
:102500008093F1008091E8008E77D9CF8091970178
:10251000813209F05CCF8091E800877F8093E800EA
:102520000E94F10B80919A018093930150CF80918A
:102530009701813A09F04BCF8091E800877F809323
:10254000E8008091E80080FFFCCF80919301D8CF14
:10255000803889F0823841F580919B018F708730F7
:1025600018F58093E9008091EB0085FB882780F9BE
:102570001092E90006C0809194019091CB019111D5
:1025800082609091E800977F9093E8008093F1003B
:102590001092F1008091E8008E7723C0811116C05F
:1025A00080919901813011F18091E80083FF0AC088
:1025B0008091E800877F8093E8008091EB00806243
:1025C0008093EB00AA96E3E00C946F20823061F7D1
:1025D00080919901882389F01092E9008091E800A8
:1025E000877F8093E8000E94F10BDECF81E093307B
:1025F00009F080E08093CB01EFCF80919B018F7039
:102600002FEF280F263080F68093E9002091EB0011
:1026100020FFE2CF933031F48091EB008062809311
:10262000EB00DACF9091EB0090619093EB0021E00A
:1026300030E0A90102C0440F551F8A95E2F740938C
:10264000EA001092EA008091EB008860E8CF8111E7
:10265000ABCF109199011F778091E3008078812B97
:102660008093E3008091E800877F8093E8000E94D8
:10267000F10B8091E80080FFFCCF8091E30080683F
:102680008093E30083E0111101C082E08093CC01CC
:102690008BCF8058823008F087CF409199015091BC
:1026A0009A014C3D83E0580799F583E08A838AE2DA
:1026B00089834FB7F894DE01139620E03EE051E2A3
:1026C000E32FF0E050935700849120FF03C08295E0
:1026D0008F703F5F8F708A30C8F0895C90E08D9377
:1026E0009D932F5F243161F74FBF8091E800877F72
:1026F0008093E8006AE270E0CE0101960E94980B98
:102700008091E8008B778093E8004ECF805DE6CF24
:1027100080919B0190919C01252F33272330310517
:1027200009F44AC078F52130310509F479C084E50F
:1027300090E0E2E7F1E02230310509F035CF209159
:10274000E800277F2093E80020919D0130919E01B1
:102750008217930708F49C0140E02115310509F028
:1027600064C0411162C08091E80082FDC9CF8091B0
:10277000CC01882329F2853019F28091E80083FF8B
:10278000F2CFBECF2132310509F43BC022323105F0
:1027900009F00ACF8330910508F006CFFC01EE0F57
:1027A000FF1FE05CFE4F0190F081E02D835C9E4FA7
:1027B000DC018C9190E011C0CA019927413089F069
:1027C00082309105B1F0892B09F0EECEE0E3F2E022
:1027D000E4918E2F90E0E0E3F2E0009709F4E4CE7C
:1027E000AECFEAE0F2E0E4918E2F90E0EAE0F2E092
:1027F000F4CFE8EDF1E0E4918E2F90E0E8EDF1E028
:10280000ECCF8330910508F0CFCEFC01EE0FFF1F17
:10281000EA5BFE4F0190F081E02D89E090E08FCFE0
:1028200082E190E0E6ECF1E08ACF8091CC01882350
:1028300009F466CF853009F463CF8091E80083FD09
:102840005FCF8091E80082FD8ECF8091E80080FF0D
:1028500084CF9091F3008091F2002115310519F099
:102860008830910550F041E0089709F040E08091F0
:10287000E8008E778093E80070CF44914093F10098
:102880003196215031090196E8CF803809F08CCE7D
:102890008091E800877F8093E80080919501809384
:1028A000F10078CE811180CE10919901123008F09C
:1028B0007BCE8091E800877F8093E800109395019C
:1028C0000E94F10B1123A9F084E08093CC0142E037
:1028D00061EC81E00E94950C42E161EC82E00E9493
:1028E000950C42E261EC83E00E94950C8091CC0152
:1028F0005BCE8091E30087FDE7CF81E0E6CFA8E0E3
:10290000B0E0E5E8F4E10C9453208091020290914C
:102910000302A0910402B0910502BC01CD010E9406
:10292000740B11E0643671058105910578F10E9400
:10293000410BDC01CB010296A11DB11D89839A8355
:10294000AB83BC8380911C0190911D0180519E4FEF
:1029500020911B01422F50E0253010F044E050E060
:10296000BE016F5F7F4F0E94FA2082E090E00E94DC
:10297000C81E182F882351F00E94240B6093020276
:10298000709303028093040290930502812F28968E
:10299000E3E00C946F20A5E0B0E0E1EDF4E10C94ED
:1029A0004920E62E6A01722EA32E882E880F9908E0
:1029B000C4010E94C81EB82E882309F46EC0C40149
:1029C00023E0880F991F2A95E1F7FC01E55FFE4F90
:1029D0002381422F50E0222311F041E050E0855F37
:1029E0009E4FDC0114966D917C9160517E4FCE011B
:1029F00001960E94FA20D6018D919D910D90BC9177
:102A0000A02DBC01CD010E94740B6A837B838C8353
:102A10009D83643671058105910530F4C8010E94DB
:102A2000600C99818917C9F10E2C000CFF08C701B1
:102A30000E94C81EB82E811106C0B12C8B2D259680
:102A4000EDE00C946520B70183E0660F771F8A954F
:102A5000E1F7FB01E55FFE4F8381482F50E08630B0
:102A600010F045E050E0655F7E4FFB0164817581A9
:102A700060517E4F872D9A2D0E94FA20C8010E9436
:102A8000600C99818913D9CF0E94240BD6016D93D4
:102A90007D938D939C931397D1CF85E0F801A72D5B
:102AA000BA2D01900D928A95E1F7C8CFA5E0B0E06C
:102AB000ECE5F5E10C9450207B0101EF11E09E0163
:102AC0002F5F3F4F4BE052E061E080E00E94CB146B
:102AD000882349F095E0FE013196A6E0B2E001902E
:102AE0000D929A95E1F795E0E6E0F2E0D7010190CA
:102AF0000D929A95E1F72596E6E00C946C20AAE0F9
:102B0000B0E0E5E8F5E10C945220809110028823B2
:102B100009F44DC00BEF11E09E012A5F3F4F4CEED0
:102B200051E064E083E00E94CB14882391F095E0AB
:102B3000FE013696DE01119601900D929A95E1F70D
:102B400095E0FE013196A3EEB1E001900D929A95C9
:102B5000E1F70091E8011091E9010115110541F13A
:102B60002091EA013091EB012017310709F1109310
:102B7000010200930002809134019091350180514F
:102B80009E4F20913301422F50E0233010F042E05D
:102B900050E060E072E00E94FA2085E090E00E9440
:102BA000C81E882329F01093EB010093EA0181E00D
:102BB0002A96E4E00C946E20CF9328E030E043E0C6
:102BC00060E080EF0E94451FC82F811105C00E9460
:102BD0001A208C2FCF91089585E08A95F1F7000097
:102BE000F8CFCF93C82F0E94DC158823C9F08C2F13
:102BF0000E94BA1F8FE792E00197F1F700C0000032
:102C00000E94D21FC82F95E09A95F1F700000E940C
:102C10001A2085E68A95F1F700008C2FCF91089550
:102C2000C0E0FBCF8FE00E94F1158F5F24E6829F0A
:102C3000C00111240895A2E0B0E0E1E2F6E10C94B5
:102C40005120182FF62E0E94DC15082F811106C086
:102C500000E0802F2296E5E00C946D20103549F0BD
:102C600080911002EDEAF1E0811102C0ECEAF1E09E
:102C7000108210681983FA8262E070E0CE0101963A
:102C80000E94EA1F892B21F78AEB8A95F1F700C091
:102C90000E941A2083E492E00197F1F700C000003F
:102CA000D8CF60E08436910550F067E784342FE296
:102CB000920728F464E670E00E947B2061508FE068
:102CC0000E941B1608950F931F93CF93DF930E94CA
:102CD0003D1F0E94DC15882309F488C025ED2A9544
:102CE000F1F700000E941A2085ED8A95F1F70000A7
:102CF0006AE58AE30E941B16882309F477C09FEFD8
:102D0000E0E7F2E09150E040F040E1F700C0000061
:102D100082E00E94F11583E00E94F11584E00E9498
:102D2000F11585E00E94F11586E00E94F1156DE134
:102D300083E10E941B16882309F458C08FE39CE9A5
:102D40000197F1F700C0000068E183E10E941B16C3
:102D50000E94DC15882309F449C082EE0E94BA1F44
:102D600090E59A95F1F7C4E3D2E002E312E1FE01A7
:102D700084910E94BA1FF0E5FA95F1F721960C179D
:102D80001D07A9F78FE193E00197F1F700C000005C
:102D90008AE20E94F11560E080E10E941B160E9409
:102DA0001A20EFE3FCE93197F1F700C000006FE073
:102DB0008FE00E941B168FE99FE00197F1F700C09A
:102DC000000060E080E10E941B1666EA81E10E943B
:102DD0001B1662E083E60E941B1680E00E94F1153C
:102DE0008FE30E94F1158AE20E94F115DF91CF91E5
:102DF0001F910F910895A6E1B0E0E1E0F7E10C9496
:102E000052204A8B5B8B6C8B7D8B8E8BFE013796B1
:102E100086E0DF011D928A95E9F7809110028F010B
:102E2000882309F448C08091AD01811151C060E050
:102E300080E50E941B16811141C086E0FE01379695
:102E4000DE01119601900D928A95E1F78F8187FB43
:102E5000882780F949855A852B853C85998180FB97
:102E600097F999835C834B833E832D8396E0FE0123
:102E70003196DE01179601900D929A95E1F79F81A8
:102E800093FD04C0811160C01092AE0185E0FE0187
:102E90007296DE011D9601900D928A95E1F72D85BF
:102EA0003E854F855889698970E080E090E066969C
:102EB000E4E00C946E208091AC01B7CF80911002B9
:102EC000EDEAF1E0811102C0ECEAF1E081E08083FB
:102ED0000E94DC15882309F4B0CF80E50E94BA1F58
:102EE000BAEBBA95F1F700C066E070E0C8010E9445
:102EF00002208F818770882349F080911002EDEACB
:102F0000F1E0811102C0ECEAF1E010820E941A2087
:102F100049855A855195419551095A8749872B858D
:102F20003C853195219531093C872B8786E0FE0150
:102F30003796DE01119601900D928A95E1F78F8107
:102F400087FB882780F98ACF8091AE01811103C069
:102F500081E08093AE01842F403851054CF08FE71B
:102F60008B8B822F2038310544F08FE78C8B8ECFEE
:102F700040385F4FACF780E8F3CF20383F4FB4F7CD
:102F800080E8F4CF1F921FB61F9211248F939F9356
:102F9000AF93BF938091CA01811113C08091A801A2
:102FA0009091A901A091AA01B091AB014196A11DF8
:102FB000B11D8093A8019093A901A093AA01B09399
:102FC000AB01BF91AF919F918F911F901FBE1F903A
:102FD00018952FB7F8948091A8019091A901A0911C
:102FE000AA01B091AB012FBF0895A6E0B0E0EBEFCE
:102FF000F7E10C9452200E94E9178C018091150290
:10300000909116028017910779F019821A820E9416
:10301000E917BC0149815A8180E090E00E94FD0FD0
:1030200010931602009315022696E4E00C946E208D
:10303000ABE1B0E0EEE1F8E10C944B201A8219828A
:10304000FE01339688E0DF011D928A95E9F78CE452
:10305000A82E81E0B82E02E511E099249394EE2485
:10306000E394F12C27E5C22E21E0D22EF5018191C7
:103070005F018F3F09F448C0F894E82FE295EF70A4
:10308000F0E021A18F70A70102C0440F551F8A955F
:10309000E2F7CA01922F982B91A392A180958923E0
:1030A00082A3789400C062E571E0DE011196492D9B
:1030B0004095FB019191BF018D919F3F09F497C00D
:1030C000292F22952F70205E30E0F901208130E019
:1030D0009F7002C0359527959A95E2F721702111CE
:1030E00086C089299D0121503109F9018083C616C6
:1030F000D706F9F6F501319780818F3F11F00E94D4
:10310000C10AF0EAFA95F1F7990C0A151B0509F0C6
:10311000ADCF4AE050E0BE016F5F7F4F8DEB91E095
:103120000E94ED200091C801892B09F462C08AE059
:10313000FE013196ADEBB1E001900D928A95E1F779
:1031400081E0809391010E94E91790939001809310
:103150008F010091C80110E003531E4F80910F02B0
:10316000882309F4B8C01C861B86FE013D9683E0C7
:10317000DF011D928A95E9F7809192018A3008F06B
:1031800068C07E01BBE0EB0EF11C46E555E1B701DE
:10319000C8010E94AE0D6701882309F48AC04FE779
:1031A00054E1B701C8010E94AE0D882309F481C023
:1031B0004FE755E1B701C8010E94AE0D882309F41D
:1031C00078C0109292018091C70190E045E050E0F4
:1031D000B60183539E4F0E94ED2021E020938E0183
:1031E000892B09F059C06B96EBE00C94672084237F
:1031F00079CF80919101882309F4ABCF20918F0181
:10320000309190014FB7F8948091A8019091A90155
:10321000A091AA01B091AB014FBF821B930B059700
:1032200008F497CF10E003531E4F45E050E06DEBDC
:1032300071E0C8010E94ED20892B41F085E0EDEBA3
:10324000F1E0D80101900D928A95E1F71092910179
:1032500080CF20918C0130918D014FB7F8948091EF
:10326000A8019091A901A091AA01B091AB014FBF13
:10327000821B930B843F914008F083CF80918E0195
:10328000882309F4B0CFFE013B9685E0DF011D9253
:103290008A95E9F710928E01A091C701B0E0A3537F
:1032A000BE4F85E0FE013B9601900D928A95E1F7B5
:1032B0009ACF809192018F3F39F40E94E917909341
:1032C0008D0180938C01DACF8F5F809392018A30D9
:1032D00008F479CFF2CF85E0F801A1EFB1E00190D9
:1032E0000D928A95E1F781EF91E00E94600C809346
:1032F000F001C090F601D090F701E090F801F09055
:10330000F9018091880190918901A0918A01B09181
:103310008B01C816D906EA06FB06B1F0C0928801F7
:10332000D0928901E0928A01F0928B010E94240BD5
:10333000C61AD70AE80AF90AC0921102D0921202FC
:10334000E0921302F09214028091100281114BCF8F
:103350008091840190918501A0918601B0918701AF
:10336000BC01CD010E94740B688F798F8A8F9B8F6F
:10337000672B682B692B09F436CF0E94240B6093CE
:1033800084017093850180938601909387010E9448
:1033900012169C0188E0EAEFF1E0DE011B96019035
:1033A0000D928A95E1F789899A89009729F0281763
:1033B000390711F00E945116FE01739685E0DF0176
:1033C0001D928A95E9F74B895C896D897E898F8981
:1033D0000E94FB162C873D874E875F87688BCE0146
:1033E0000C960E94600C8B8788E0FE013B96AAEF4A
:1033F000B1E05ACFCDB7DEB728970FB6F894DEBF4D
:103400000FBECDBF85B7806885BF85B7806885BF93
:1034100084B7877F84BF0FB6F894A8958091600029
:10342000886180936000109260000FBE80E890E099
:103430000FB6F89480936100909361000FBE8FEBFC
:103440009AE090935B0180935A010E94410C0E9484
:10345000CC0C8091E20084608093E20078948091AB
:10346000CC01882399F08091E9001091EC00179528
:10347000112717958F70182B1092E9008091E800A2
:1034800083FD0E94C8111F701093E90082E084BD83
:1034900093E095BD9AEF97BD80936E001092110254
:1034A0001092120210921302109214028091D8000E
:1034B00080618093D8002AE12A95F1F700C08091BD
:1034C000D90080FFE2C081E080930F028093100258
:1034D000809300010E94DA1D80910001809100011B
:1034E00090E0811101C095E09093C80185E0891BAF
:1034F0008093C7010CE411E042E5E42E41E0F42E94
:10350000D8018D918D018F3F11F00E94C10AE01604
:10351000F106B1F702E511E0F80181918F018F3FCB
:1035200011F00E94C10AF1E007351F07A9F78AE0F0
:10353000EDECF1E0DF01282F1D922A95E9F7EDEB84
:10354000F1E0DF011D928A95E9F78FE090E00E949B
:103550009D206F736093C90180E090E00E94A320DA
:10356000863E9E4F09F46AC066EE7EEF80E090E0F2
:103570000E94D72060E082E090E00E94B92081E0C4
:1035800090E090934A028093490261E083E090E0EA
:103590000E94B92060E074E184E090E00E94D720AE
:1035A00060E086E090E00E94B9206FEF87E090E055
:1035B0000E94B92040E050E0BA0188E090E00E940B
:1035C000CB2060E084E290E00E94B92060E087E1D7
:1035D00090E00E94B92060E08CE090E00E94B92069
:1035E00060E08DE090E00E94B92019821A821B826F
:1035F0001C821D821E821F82188648E050E068E10E
:1036000070E0CE0101960E94A92040E050E0BA018E
:1036100080E290E00E94CB201092C90140E050E08F
:10362000BA018FE090E00E94CB200E94790C40E02C
:1036300050E0BA0183E190E00E94CB2082E090E06C
:103640000E9495208093D70184E090E00E94A320FF
:1036500090934702809346020E941818EFEFF6E716
:1036600021E0E150F0402040E1F700C000000E945E
:1036700018188091CD0180FF13C06FEF7FEF80E0BD
:1036800090E00E94D7200E94270D0E94410C1092CA
:10369000CC0110920F0210921002109200011CCF68
:1036A00083E090E00E94952090E090934A028093FE
:1036B000490280910F02811102C00E94DD1D80919C
:1036C0001002811102C00E9463160E94790C81E0F1
:1036D00091E0909338028093370202EE11E028E1E6
:1036E000E22EF12C30E4C32E772473948091CC0128
:1036F000853059F48091CC01853009F453C0109283
:103700004B020E94CD0F0E94E60A0E94181888ED15
:10371000A82E81E0B82E9DEC892E91E0992ED4013F
:10372000F50191918D910E171F0709F48DC098171F
:10373000C1F320900F02D12CD4016D904D01F50101
:1037400031905F01361439F13624512C44244394CE
:10375000842D83218823B9F02220A9F05982DA82AE
:103760000E94E9179C838B837D8291E0842D8621C2
:10377000811101C090E09E8349815A816B817C81D7
:103780008D810E94FD0F5394440CF6E05F12E0CF50
:10379000F50131976082D3942AE0D212CDCF0E94F6
:1037A000410B56C08091CC01843019F10E94530E18
:1037B0001092CA010FB6F894A895E09260000FBE6F
:1037C000C092600083B7817F846083BF83B78160CC
:1037D00083BF7894889583B78E7F83BF0FB6F894A4
:1037E000A8958091600088618093600010926000CD
:1037F0000FBE8091CB01882309F47CCF0E9418185A
:10380000EDECF1E08191811105C081E0E73DF80721
:10381000C9F770CF80E189BD82E189BD09B400FE9E
:10382000FDCF8091D8008F7D8093D8008091E000FB
:1038300082608093E0008091E00081FDFCCF1092D7
:103840004B020E94CD0F56CF981373CF0E94F517ED
:103850000E94530E81110E94410B0E94E60A909132
:10386000E201891709F442CF8093E2010E94240B00
:103870003DCF78941F921FB61F9211248F939F9370
:10388000AF93BF938091A8019091A901A091AA0143
:10389000B091AB010196A11DB11D8093A801909339
:1038A000A901A093AA01B093AB01BF91AF919F91E1
:1038B0008F911F901FBE1F9018951F920F920FB6E9
:1038C0000F9211242F933F934F935F936F937F93A6
:1038D0008F939F93AF93BF93EF93FF938091E100FA
:1038E00082FF09C08091E20082FF05C08091E10063
:1038F0008B7F8093E1008091DA0080FF24C080916B
:10390000D80080FF20C08091DA008E7F8093DA009B
:103910008091D90080FF9BC080E189BD82E189BD93
:1039200009B400FEFDCF81E08093CC018091960127
:10393000811109C00E94410C0E94CC0C8091E200D0
:1039400084608093E2008091E10080FF17C0809145
:10395000E20080FF13C08091E2008E7F8093E2003E
:103960008091E20080618093E2008091D8008062C3
:103970008093D80019BC85E08093CC018091E10050
:1039800084FF29C08091E20084FF25C080E189BDC9
:1039900082E189BD09B400FEFDCF8091D8008F7D02
:1039A0008093D8008091E1008F7E8093E100809128
:1039B000E2008F7E8093E2008091E200816080933C
:1039C000E20080919501882309F447C084E0809348
:1039D000CC018091CC018091E10083FF27C08091D0
:1039E000E20083FF23C08091E100877F8093E100A4
:1039F00082E08093CC01109295018091E1008E7F4E
:103A00008093E1008091E2008E7F8093E2008091BC
:103A1000E20080618093E20042E060E080E00E948A
:103A2000950C8091F00088608093F000FF91EF91F9
:103A3000BF91AF919F918F917F916F915F914F91C6
:103A40003F912F910F900FBE0F901F90189519BCAA
:103A50001092CC011092960176CF8091E30087FFFF
:103A600002C083E0B4CF81E0B2CF1F920F920FB6B5
:103A70000F921124FF920F931F932F933F934F9315
:103A80005F936F937F938F939F93AF93BF93CF93E6
:103A9000DF93EF93FF9309EE10E0F8018081C0916E
:103AA000EC00C795CC27C7958F70FC2EF82A1082A2
:103AB000C0EFD0E08881877F888378940E94C81106
:103AC000F8011082888188608883CF2DCF70C083F1
:103AD000FF91EF91DF91CF91BF91AF919F918F9126
:103AE0007F916F915F914F913F912F911F910F9116
:103AF000FF900F900FBE0F901F9018958EE14A9B7C
:103B000003C081508111FBCF4A9BFECF08955A9884
:103B100080E28A95F1F75A9A0895FC013BE03A95C4
:103B2000F1F798E020E080E031E040E14A95F1F7DC
:103B3000880F4A9B02C08160232742E04A95F1F733
:103B4000000040E14A95F1F791509111EECF90E1DC
:103B50009A95F1F799B132E03A95F1F7000040E11A
:103B60004A95F1F792FB992790F992272081920FBD
:103B700090830895A1E0B0E0E0ECFDE10C945020CA
:103B800019828C017C01E60EF11C0E151F0541F413
:103B900081E09981911180E02196E6E00C946C20FF
:103BA0000E947E1DCE0101960E948D1DF801819319
:103BB0008F01EBCF529A5A9A089552985A9AEA9ADC
:103BC000E9E6F0E080818F7C808308956150770B77
:103BD00091E001C0990F6A95EAF7692F90E021E022
:103BE000611108C0992399F05A9A80E28A95F1F7F9
:103BF0005A980895362F3823332339F05A9A92274A
:103C000030E23A95F1F76695EBCF5A98F9CF5A988A
:103C1000ECCFFF920F931F93CF93DF93EC018C01B6
:103C2000060F111DC017D10729F4CDB7DEB7E5E0A7
:103C30000C946D20F9900E94871D68E08F2D0E94E2
:103C4000E61DF0CF1F920F920FB60F9211240F9323
:103C50001F932F933F934F935F936F937F938F9314
:103C60009F93AF93BF93EF93FF93CF93DF930F9205
:103C7000CDB7DEB719820E947E1DCE0101960E944B
:103C80008D1D082F069506950695982F929595708F
:103C9000202F2570920F292F237096959695920FBD
:103CA000982797708981892B81115CC0073008F0B3
:103CB00059C080E18A95F1F75A9A529A82E08A9522
:103CC000F1F700C05A9888E0089F80011124D801BC
:103CD000A55FBE4F1696ED91FC9117973097A9F00E
:103CE000609157017091580114962D913C91159750
:103CF000260F371F11968D919C911297680F791F8F
:103D000013964C9113978C910995F801E55FFE4F3E
:103D10006381662351F020915701309158018481CD
:103D20009581820F931F0E94091E0E94871D80E1CA
:103D30008A95F1F75A9852985A9A80E18A95F1F744
:103D4000F801E55FFE4F6081662351F02091570135
:103D50003091580181819281820F931F0E94BA1D78
:103D60000E947E1D0F90DF91CF91FF91EF91BF9147
:103D7000AF919F918F917F916F915F914F913F9103
:103D80002F911F910F910F900FBE0F901F901895BC
:103D90000F931F93CF93DF938C0107970CF065C0AF
:103DA000F894529A5A9885E08A95F1F70000C02F4E
:103DB000C695C570802F8570C80F8C2F8370C695EF
:103DC000C69593E0000F111F9A95E1F7C80FC8013F
:103DD0008C2BEC010E94871D00C068E08C2F0E9494
:103DE000E61D90E19A95F1F752985A9A4A9B35C090
:103DF00087E090E04A9933C0F801E55FFE4F6381A8
:103E0000662361F02091570130915801848195819A
:103E1000820F931F0E94BA1D882321F10E947E1DEC
:103E200080E28A95F1F75A98529A90E19A95F1F7C3
:103E3000F801E55FFE4F6081662351F02091570144
:103E40003091580181819281820F931F0E94091E37
:103E50000E94871D789481E009C000C0C7CF0197F8
:103E6000009749F4529A5A9A789480E0DF91CF9162
:103E70001F910F91089500C0BDCF289A219A229AD0
:103E800023982B9880E58CBD0895F90190913C0111
:103E90009F3F09F06DC08F3F09F46AC06295660FBD
:103EA000607E60934D02423009F441C0433009F412
:103EB00042C064604130E1F121E030E02E173F075D
:103EC000E0F190914D022032310509F44CC0C0F56B
:103ED0002830310509F442C02031310509F441C0D0
:103EE00022303105B9F19CB520914D02922B9CBD39
:103EF00090914C02992319F09DB591609DBD8093DE
:103F00003C01E82FE295EF70F0E031A1282F2F70EF
:103F100081E090E001C0880F2A95EAF7932F982B53
:103F200091A392A18095892382A381E0089568607E
:103F300060934D02C1CF6C60FBCF220F331FBECF09
:103F40002034310599F093602038310561F6909363
:103F50004D02C9CF91E090934C02C5CF21E0209350
:103F60004C029160F4CF21E020934C029260EFCF9D
:103F700080E00895CF93DF938EBD0E94E917EC0196
:103F80000DB407FE05C08EB590E0DF91CF91089586
:103F90000E94E9178C1B9D0B8436910588F38EEFE8
:103FA0009FEFF3CFCF93DF931EBC0E94E917EC0184
:103FB0000DB407FE05C08EB590E0DF91CF91089556
:103FC0000E94E9178C1B9D0B8436910588F38EEFB8
:103FD0009FEFF3CF0F931F93CF93DF93EC018C01EF
:103FE000060F171FC017D10719F480E090E005C035
:103FF00089910E94BA1F97FFF5CFDF91CF911F9152
:104000000F9108950F931F93CF93DF93EC018C01D1
:10401000060F171FC017D10739F480E090E0DF9139
:10402000CF911F910F9108950E94D21F97FDF7CF56
:104030008993F0CF80913C018F3F29F1E82FE295E1
:10404000EF70F0E041A18F7021E030E0B90102C0D3
:10405000660F771F8A95E2F7CB01942F982B91A3D7
:1040600092A1892B82A38FEF80933C018DB58E7F27
:104070008DBD9CB580914D02809589238CBD109299
:104080004D0210924C0208952F923F924F925F92F0
:104090006F927F928F929F92AF92BF92CF92DF9258
:1040A000EF92FF920F931F93CF93DF93CDB7DEB7BD
:1040B000CA1BDB0B0FB6F894DEBF0FBECDBF099451
:1040C0002A88398848885F846E847D848C849B84A8
:1040D000AA84B984C884DF80EE80FD800C811B81B6
:1040E000AA81B981CE0FD11D0FB6F894DEBF0FBEE5
:1040F000CDBFED010895AA1BBB1B51E107C0AA1F4C
:10410000BB1FA617B70710F0A61BB70B881F991F78
:104110005A95A9F780959095BC01CD010895EE0FB1
:10412000FF1F0590F491E02D0994F999FECF92BDFF
:1041300081BDF89A992780B50895A6E1B0E044E0E2
:1041400050E00C94DF20A8E1B0E042E050E00C9495
:10415000DF20DC01A40FB51F4150504048F0CB01D7
:10416000840F951F2E910E94BA2041505040D0F7E5
:104170000895262FF999FECF92BD81BDF89A019737
:1041800000B4021639F01FBA20BD0FB6F894FA9A9F
:10419000F99A0FBE08950396272F0E94BA200E9415
:1041A000B920252F0E94BA20242F0C94BA20019602
:1041B000272F0E94BA200C94B920DC01CB01FC010E
:1041C000F999FECF06C0F2BDE1BDF89A319600B470
:1041D0000D9241505040B8F70895FB01DC0104C036
:1041E0008D910190801921F441505040C8F7881BEF
:1041F000990B0895FB01DC0102C001900D92415022
:104200005040D8F70895F894FFCFA812CE12D412D8
:0E421000CE12D41227134913D412451452149F
:10421E0001940B890DA00DA70D970B000000010056
:10422E000000000000000501000000040600000070
:10423E00000000000000010A000000000000050B55
:10424E00000000021000000000000001FF44473B88
:10425E002E01E700AC0084019D01B601F6F53697FC
:0A426E00C634F4F7669435F0010041
:00000001FF
